:020000040800F2
:1000000000500020A113000841030008430300082A
:1000100045030008470300084903000800000000EA
:100020000000000000000000000000004B0300087A
:100030004D030008000000004F03000851030008B2
:10004000E9130008E9130008E9130008E9130008A0
:10005000E9130008E9130008E9130008E913000890
:10006000E9130008E9130008E91300085503000824
:10007000E9130008E9130008E9130008E913000870
:10008000E9130008E9130008E9130008E913000860
:10009000E9130008E9130008E9130008E913000850
:1000A000E9130008E9130008E9130008E913000840
:1000B000E9130008E9130008E9130008E913000830
:1000C000E9130008E9130008E9130008E913000820
:1000D000E9130008E9130008E9130008E913000810
:1000E000E9130008E9130008E91300080000000004
:1000F0000000000000000000000000000000000000
:0C01000000000000000000005FF808F1A3
:10010C0010B5054C237833B9044B13B10448AFF345
:10011C0000800123237010BD0C00002000000000A3
:10012C004414000808B5034B1BB103490348AFF353
:10013C00008008BD000000001000002044140008DE
:10014C0000B591B000F04EF91422002108A801F07E
:10015C0046F91422002101A801F041F901254FF4C0
:10016C0080330224CDE90653CDE90D434FF4E0135F
:10017C0006A80F9300F046FA08B172B6FEE70F23FB
:10018C00CDE901344FF480630390CDE9043021466E
:10019C0001A800F0F9FB08B172B6FEE700F014F804
:1001AC0000F046F8054801F085F82A460449034852
:1001BC0000F04EFF642000F039F9FBE770000020DE
:1001CC002800002072B6FEE710B586B01022002180
:1001DC0002A801F004F9144B144C9A69204642F021
:1001EC0010029A619A694FF4005102F010020092C9
:1001FC00009A9A6942F004029A619B69012203F009
:10020C0004030193019B00F0F7F94FF40052012312
:10021C000021CDE9022302232046CDE9041302A9D3
:10022C0000F016F906B010BD00100240001001409D
:10023C0030B51148114B85B00024012503604FF4F3
:10024C006023CDE901440394846005730475C36194
:10025C004460056100F0B0FF08B1FFF7B3FF052360
:10026C00054801A9CDE90145039300F037FE08B11B
:10027C00FFF7A8FF05B030BD70000020002401403E
:10028C0070B500260268274B88B09A420546CDE926
:10029C00066644D103F56C439A69234842F4007214
:1002AC009A619A6904A902F400720192019A9A69FE
:1002BC001E4C42F004029A619A6902F00402029206
:1002CC00029A5A6942F001025A615B69012203F0F9
:1002DC0001030393039B0323CDE9042300F0B8F837
:1002EC00134B8021C4E900364FF480734FF48060C7
:1002FC00C4E903132023C4E905032046A660E66184
:10030C0000F0B0FC08B1FFF75DFF00220B202C625F
:10031C001146656200F054FC0B2000F081FC08B023
:10032C0070BD00BF00240140000801402C000020DB
:10033C00080002407047FEE7FEE7FEE7FEE7704765
:10034C007047704700F060B8014800F0F7BC00BF80
:10035C002C000020704700000E4B82B09A6942F0CE
:10036C0001029A619A6902F001020092009ADA691C
:10037C0042F08052DA61DB69074A03F08053019343
:10038C00019B536823F0E06343F00073536002B0A9
:10039C00704700BF001002400000014038B50E4B02
:1003AC0005461A784FF47A73B3FBF2F30B4A1068D4
:1003BC00B0FBF3F000F042FC044658B90F2D09D8FD
:1003CC00024629464FF0FF3000F0FAFB2046044B62
:1003DC001D6038BD0120FCE7040000200000002057
:1003EC0008000020074A08B51368032043F01003E7
:1003FC00136000F0D3FB0F20FFF7D0FFFFF7ACFF2B
:10040C00002008BD00200240034A044B11681B78F1
:10041C000B441360704700BFA000002004000020B4
:10042C00014B1868704700BFA000002038B5044687
:10043C00FFF7F6FF0546631C1EBF044B1B78E41840
:10044C00FFF7EEFF431BA342FAD338BD0400002094
:10045C002DE9F74F00244FF00F0E2646DFF884C12C
:10046C00614B00F104080A6832FA06F502D103B0B8
:10047C00BDE8F08F012505FA06F702EA070537EA11
:10048C00020276D14A68032A07D8013A022A00F2FE
:10049C008380DFE802F091969C00122A00F0948091
:1004AC0069D8112A00F08A80FF2D94BF8146C1467D
:1004BC004FEA8602D9F8007088BF203A0EFA02FA89
:1004CC0027EA0A0704FA02F21743C9F80070D1F8B8
:1004DC00049019F0805F4CD0DCF8182026F003074C
:1004EC0042F00102CCF81820DCF8182007F1804704
:1004FC0002F00102019207F5803706F0030A019A17
:10050C004FEA8A0ABA680EFA0AFB22EA0B0B374A40
:10051C00904260D002F5806290425ED002F580621B
:10052C0090425CD002F58062904214BF04220322F8
:10053C0002FA0AF242EA0B02BA609A6819F4801FB6
:10054C0014BF2A43AA439A60DA6819F4001F14BF37
:10055C002A43AA43DA605A6819F4003F14BF2A43AD
:10056C00AA435A601A6819F4803F14BF2A43AA435D
:10057C001A60013677E7DFF878904A450CD014D82A
:10058C00A9F580194A4507D009F570294A4503D0C9
:10059C00A9F580194A4587D18A68D2B1012A4FF052
:1005AC0008040CBF076147617EE7DFF848904A45B5
:1005BC00F2D009F58039EDE7CC6875E7CC680434E6
:1005CC0072E7CC6808346FE7CC680C346CE7002415
:1005DC006AE7042468E70022AAE70122A8E70222BE
:1005EC00A6E700BF001002400004014000080140D3
:1005FC0000002210000031100AB10161704709049B
:10060C00FBE700002DE9F341054638B30368DB072F
:10061C0010D42B689F075ED42B68190700F19580C6
:10062C002B685A0700F1C180EB69002B40F02C813C
:10063C00002029E0904C636803F00C03042B07D0D6
:10064C00636803F00C03082B0AD16368DE0307D53B
:10065C0023689C03DDD56B68002BDAD1012013E0F5
:10066C006B68B3F5803F12D1236843F48033236069
:10067C00FFF7D6FE064623689803CAD4FFF7D0FED0
:10068C00801B6428F7D9032002B0BDE8F0819BB928
:10069C00236823F480332360236823F480232360AE
:1006AC00FFF7BEFE064623689903B2D5FFF7B8FEE6
:1006BC00801B6428F7D9E6E7B3F5A02F236803D194
:1006CC0043F480232360CFE723F480332360236833
:1006DC0023F48023CBE7684C636813F00C0F07D02E
:1006EC00636803F00C03082B10D16368DA030DD494
:1006FC0023689B0702D52B69012BAFD123686A694C
:10070C0023F0F80343EAC203236085E72A695B4BB5
:10071C006AB101221A60FFF783FE064623689F0721
:10072C00ECD4FFF77DFE801B0228F7D9ABE71A60EB
:10073C00FFF776FE0646236898077FF56DAFFFF747
:10074C006FFE801B0228F6D99DE7AA694A4E4B4BD7
:10075C00E2B10122C3F88024FFF762FE0446736AFB
:10076C009B070DD54FF4FA52454B1B68B3FBF2F3C4
:10077C00019300BF019B5A1E0192002BF9D14FE748
:10078C00FFF74EFE001B0228E9D97CE7C3F8802452
:10079C00FFF746FE0446736A9F077FF541AFFFF7EC
:1007AC003FFE001B0228F6D96DE7334CE369D800F5
:1007BC0024D40127E36943F08053E361E36903F038
:1007CC0080530093009B2F4E3368D90518D5EB68E6
:1007DC00012B26D1236A43F001032362FFF720FE8D
:1007EC0041F288380646236A9B073FD5002F3FF419
:1007FC001BAFE36923F08053E36115E70027E2E7C1
:10080C00336843F480733360FFF70AFE8046336825
:10081C00DA05DCD4FFF704FEA0EB08006428F6D957
:10082C0031E7ABB9236A41F2883823F00103236224
:10083C00236A23F004032362FFF7F2FD0646236AC2
:10084C009807D3D5FFF7ECFD801B4045F7D91AE785
:10085C00052B236A03D143F004032362BAE723F088
:10086C0001032362236A23F00403B6E7FFF7D8FDE4
:10087C00801B4045B7D906E70010024000004242F9
:10088C0000000020007000402A4C626802F00C024C
:10089C00082A3ED00022022B274B1A662CD1FFF7D8
:1008AC00BFFD06462368990120D42B6AB3F5803F1F
:1008BC0005D16268A96822F400320A436260696A51
:1008CC0062680B4322F474121343012263601A4BC7
:1008DC001A66FFF7A5FD054623689A013FF5A8AEF9
:1008EC00FFF79EFD401B0228F6D9CCE6FFF798FDDA
:1008FC00801B0228D6D9C6E6FFF792FD0546236871
:10090C009B017FF595AEFFF78BFD401B0228F6D9B6
:10091C00B9E6012B3FF4A2AE60682B6A00F480327A
:10092C009A427FF49BAE6B6A00F47010C01A18BF29
:10093C000120A9E600100240000042420D4A536813
:10094C0003F00C01082912D10B48C3F38341DB03DC
:10095C00405C09D55368094AC3F340435043084AE5
:10096C00D35CB0FBF3F07047064B58437047034819
:10097C00704700BF001002407614000800127A0085
:10098C007414000800093D002DE9F0410D460446A1
:10099C0010B90120BDE8F081444A136803F0070345
:1009AC008B4228D321688E0730D4CA0743D43F4AE0
:1009BC00136803F00703AB4265D822683C4D12F074
:1009CC00040F6CD1130706D56B68226923F46053AE
:1009DC0043EAC2036B60FFF7B1FF6B68354AC3F3A0
:1009EC000313D35CD840344B1860344B1868FFF7B2
:1009FC00D5FC0020CEE7136823F007030B431360EC
:100A0C00136803F007038B42C3D1CBE7284B11F0DB
:100A1C00040F1EBF5A6842F4E0625A60080742BFD6
:100A2C005A6842F460525A605A68A06822F0F00288
:100A3C0002435A60B9E762681D4E012A33681AD125
:100A4C0013F4003FA5D0736841F2883823F00303F8
:100A5C0013437360FFF7E4FC07467368626803F0A6
:100A6C000C03B3EB820FA2D0FFF7DAFCC01B40459E
:100A7C00F3D903208EE7022A02D113F0007FE1E7BD
:100A8C0013F0020FDEE7136823F007032B43136008
:100A9C00136803F00703AB427FF47BAF8DE76B6801
:100AAC00E16823F4E0630B436B608BE700200240AA
:100ABC000010024064140008000000200800002010
:100ACC00044B054A5B68C3F3C223D35C034A10682A
:100ADC00D8407047001002405C1400080000002051
:100AEC00022808B544D0102803D0012822D00020B9
:100AFC0034E0254B5A68186810F080702ED0C2F381
:100B0C0083412248D20348BF5A68405C41BF204908
:100B1C00C2F34042895C1F4A5B684CBFB2FBF1F2E6
:100B2C001D4A5B0202FB00F018D403234000B0FB0B
:100B3C00F3F013E040F20231134A136A1940B1F595
:100B4C00817F1ED003F44073B3F5007F07D149F6C3
:100B5C004040536A13F0020F08BF002008BDB3F5E4
:100B6C00407FC4D113684FF2244013F4003FF3E7E5
:100B7C00FFF7A6FF044B5B68C3F3813301335B00C3
:100B8C00D5E74FF40040E9E7001002408814000854
:100B9C008614000800127A0000093D000749030280
:100BAC00CA6803F4E06322F4E0621204120C1343EB
:100BBC0043F0BF6343F40033CB60704700ED00E0BB
:100BCC00154B30B5DC68C4F30224C4F10703251DB2
:100BDC00042B28BF0423062D4FF0FF3594BF0024AF
:100BEC00033C05FA03F321EA0303A54022EA0502BC
:100BFC00A340002843EA0203ACBF00F16040074A5F
:100C0C004FEA0313DBB2ABBF00F5614000F00F00FD
:100C1C0080F80033135430BD00ED00E014ED00E01B
:100C2C00002807DB01234109034A00F01F00834021
:100C3C0042F82130704700BF00E100E00138B0F10C
:100C4C00807F0BD24FF0E023F021054A586182F8E7
:100C5C0023100020072298611A6170470120704709
:100C6C0000ED00E0034610B530B301681420134AC0
:100C7C000A44B2FBF0F292001A64114ADA630222BF
:100C8C0083F82120D3E901242243DC68086822433D
:100C9C001C696FF30D1022435C6922439C6922434B
:100CAC00DC69224302430A6000200122986383F826
:100CBC00200083F8212010BD0120FCE7F8FFFDBFC8
:100CCC0000000240F0B590F82040012C34D00124F3
:100CDC0080F8204090F82140012CE5B24FF0000440
:100CEC0028D1022680F8216084630468266826F0E7
:100CFC0001062660D0E90F67BD40756063604368EC
:100D0C00102BC36A0BBFA260A160E160E2604BB123
:100D1C00236843F00E0300202360236843F0010393
:100D2C002360F0BD236823F004032360236843F0A1
:100D3C000A03F0E780F820400220F2E770B40425A3
:100D4C00C66B026C3468036895402542196832D032
:100D5C004D0730D51A6896065EBF1A6822F0040259
:100D6C001A603E4A934219D01432934218D014326E
:100D7C00934217D01432934217D01432934217D0A7
:100D8C001432934214BF4FF080634FF48003344A03
:100D9C005360C36A002B5ED070BC18470423F6E77F
:100DAC004023F4E74FF48063F1E74FF48043EEE720
:100DBC004FF48023EBE702259540254235D08D0773
:100DCC0033D51A68940606D41A6822F00A021A60FF
:100DDC00012280F82120214A934219D014329342E7
:100DEC0018D01432934217D01432934217D01432C5
:100DFC00934217D01432934214BF4FF000734FF448
:100E0C000013174A5360002380F82030836AC1E72F
:100E1C000223F6E72023F4E74FF40073F1E74FF4D5
:100E2C000053EEE74FF40033EBE7082595402542DD
:100E3C0011D009070FD5196821F00E011960012393
:100E4C0003FA02F27260836380F82130002380F889
:100E5C002030036B9EE770BC704700BF0800024057
:100E6C00000002407047436A10B59A6A12F0500FA6
:100E7C001BD19A6A42F400729A621A68926802F460
:100E8C006022B2F5602F0CD11A7B52B99A6A22F407
:100E9C0080729A629A6AD2045EBF9A6A42F0010228
:100EAC009A621846FFF7DEFF10BD1B6ABDE81040C2
:100EBC001B6B1847704708B5406AFFF7FBFF08BD6E
:100ECC007047406A08B5836A43F040038362C36A83
:100EDC0043F00403C362FFF7F3FF08BD002373B5AF
:100EEC00019390F824300446012B6CD0012380F838
:100EFC0024304D680268062D086805EB850322D85E
:100F0C001F26556B053B9E4025EA060500FA03F3A8
:100F1C002B43536309288B6800EB40054FF0070106
:100F2C0029D9D6681E3DA94026EA0101AB400B43E6
:100F3C00D360A0F11003012B25D90020002384F8E5
:100F4C00243002B070BD0C2D4FF01F0509D8166B64
:100F5C00233B9D4026EA050500FA03F32B4313635C
:100F6C00D8E7D66A413B9D4026EA050500FA03F313
:100F7C002B43D362CEE71069A94020EA0101AB40B4
:100F8C000B431361D9E7114B9A4216D193681B029C
:100F9C00D3D49368102843F400039360CDD10C4B49
:100FAC000C4A1B68B3FBF2F30A2253430193019BD7
:100FBC00002BC2D0019B013BF8E7A36A012043F050
:100FCC002003A362BAE70220BBE700BF0024014064
:100FDC000000002040420F00002337B50193036846
:100FEC0004469A68D20702D5002003B030BD9A6837
:100FFC0042F001029A60144B144A1B68B3FBF2F3E3
:10100C000193019BE3B9FFF70BFA054623689B6834
:10101C00DB07E9D4FFF704FA401B0228F6D9236852
:10102C009B6813F00103F1D1A26A012042F0100277
:10103C00A262E26A84F8243042F00102E262D4E750
:10104C00019B013BDCE700BF0000002040420F0089
:10105C002DE9F041404B9046026804469A420F46F7
:10106C0002D03E498A4203D15B6813F4702F6ED1D3
:10107C0094F82430012B6CD00123204684F82430C2
:10108C00FFF7AAFF064600285DD1A56A2168334BFD
:10109C0025F4706525F0010545F480759942A5622B
:1010AC0004D12D4A536813F4702F3ED1A36A23F454
:1010BC008013A3624B685A0505D5A36A23F44053E9
:1010CC0043F48053A362A36A206A13F4805318BFBD
:1010DC00E36A3A4618BF23F00603E362002384F860
:1010EC0024301F4B4C3183621E4BC3621E4B036377
:1010FC006FF0020341F84C3C51F8443C43F48073CC
:10110C0041F8443C4346FFF7DDFD23689A6802F43E
:10111C006022B2F5602F9A680CBF42F4A00242F430
:10112C0080129A603046BDE8F081A36A43F48013C4
:10113C00A36253685B0541BFA06A20F4405040F4A1
:10114C008050A062BFE7002384F82430EAE7012630
:10115C00E8E70226E6E700BF002401400028014032
:10116C00730E0008C30E0008CF0E000838B50368D4
:10117C0004469A68D10701D4002038BD9A6822F041
:10118C0001029A60FFF74CF9054623689B68DB0760
:10119C00F2D5FFF745F9401B0228F6D923689B6866
:1011AC00DA07F2D5A36A012043F01003A362E36AC5
:1011BC0043F00103E362E0E7F8B5044600286DD084
:1011CC00836A23B9C36280F82430FFF759F82046AC
:1011DC00FFF7CCFFA36A13F0100361D100285FD195
:1011EC00A26A616822F4885222F0020242F00202E2
:1011FC00E569A668A262227B2943B6F5807F41EAA5
:10120C00420136D0771E7D427D412D02277D012F74
:10121C0006D182BBA269013A45EA423242F400652A
:10122C002268B6F5807F576827F4694745EA0705B9
:10123C00556097681D4D05EA070545EA010595605F
:10124C0001D0012E02D12369013B1B05D56A25F47F
:10125C0070052B43D3629268154B1340994213D1FE
:10126C000023E362A36A23F0030343F00103A362A8
:10127C00F8BD3546CAE7A26A42F02002A262E26AD1
:10128C0042F00102E262CBE7A36A23F0120343F0BF
:10129C001003A362E36A43F00103E3620120E7E772
:1012AC00A36A43F01003A362F8E700BFFDF7E1FF68
:1012BC00FE0E1FFF002373B5019390F824300446F3
:1012CC00012B62D0012380F82430FFF74FFF20461A
:1012DC00FFF782FE054600282FD1A36A022023F4D3
:1012EC00885323F0020343F00203A362284B1E68C9
:1012FC00FFF7F6FBB6FBF0F676000196019B03BBFD
:10130C002268936843F008039360FFF789F8064658
:10131C0023689A68110718D49A6842F004029A60FC
:10132C00FFF77EF8064623689B685B0723D4A36A05
:10133C0023F0030343F00103A362002384F8243059
:10134C0016E0019B013B0193D8E7FFF769F8801B7E
:10135C000A28DDD923689B681807D9D5A36A01250B
:10136C0023F0120343F01003A362002384F824300B
:10137C00284602B070BDFFF753F8801B0A28D2D95B
:10138C0023689B685A07CED5E8E70225F0E700BF33
:10139C0000000020FEF7DEFF0B480C490C4A00232E
:1013AC0002E0D458C4500433C4188C42F9D3094A0F
:1013BC00094C002301E013600432A242FBD300F07D
:1013CC0017F8FEF7BDFE7047000000200C0000204F
:1013DC00A01400080C000020A4000020FEE7034627
:1013EC000244934200D1704703F8011BF9E7000057
:1013FC0070B500260C4D0D4C641BA410A64209D1EF
:10140C0000F01AF800260A4D0A4C641BA410A642E0
:10141C0005D170BD55F8043B98470136EEE755F8F9
:10142C00043B98470136F2E798140008981400081A
:10143C00981400089C140008F8B500BFF8BC08BC50
:10144C009E467047F8B500BFF8BC08BC9E46704776
:10145C000000000001020304000000000000000076
:10146C00010203040607080901020203040506072A
:10147C0008090A0B0C0D0E0F1010010202030405D3
:0C148C00060708090A0B0C0D0E0F1010CB
:041498003101000816
:04149C000D01000836
:0C14A00000127A000100000010000000A3
:04000005080013A13B
:00000001FF
