:020000040800F2
:10000000005000204116000875030008770300081F
:10001000790300087B0300087D030008000000004E
:100020000000000000000000000000007F03000846
:100030008103000800000000830300088503000816
:100040008916000889160008891600088916000814
:100050008916000889160008891600088916000804
:1000600089160008891600088916000889160008F4
:1000700089160008891600088916000895030008EB
:1000800089160008891600088916000889160008D4
:1000900089160008891600088916000889160008C4
:1000A00089160008891600088916000889160008B4
:1000B00089160008891600088916000889160008A4
:1000C0008916000889160008891600088916000894
:1000D0008916000889030008891600088916000897
:1000E000891600088916000889160008000000001B
:1000F0000000000000000000000000000000000000
:0C01000000000000000000005FF808F1A3
:10010C0010B5054C237833B9044B13B10448AFF345
:10011C0000800123237010BD0C00002000000000A3
:10012C00E416000808B5034B1BB103490348AFF3B1
:10013C00008008BD0000000010000020E41600083C
:10014C0000B595B06A461546274B03F110061446C8
:10015C0018685968083303C4B3422246F7D11B7898
:10016C00237000F05FF9142200210CA801F087FA2B
:10017C00142200210DEB020001F081FA02244FF44D
:10018C0080330122CDE91143CDE90A234FF4E0136A
:10019C000AA8139300F056FA08B172B6FEE70F23C3
:1001AC00CDE905344FF480630790CDE90830214642
:1001BC0005A800F009FC08B172B6FEE700F01CF8C7
:1001CC0000F04EF810220949094801F021FA084CB8
:1001DC004FF0FF3310222946204600F048FF4FF421
:1001EC00FA7000F043F9F3E7FC1600082800002031
:1001FC007C00002072B6FEE710B586B010220021FC
:10020C0002A801F03CFA144B144C9A69204642F0B7
:10021C0010029A619A694FF4005102F01002009298
:10022C00009A9A6942F004029A619B69012203F0D8
:10023C0004030193019B00F0FFF94FF400520123DA
:10024C000021CDE9022302232046CDE9041302A9A3
:10025C0000F01EF906B010BD001002400010014065
:10026C0008B54FF4E1330A480A4AC0E900230023D9
:10027C000C22C0E90233C0E905230361C36100F01D
:10028C00C7FE18B1BDE80840FFF7B4BF08BD00BFFA
:10029C007C0000200038014070B5002502682E4B10
:1002AC0088B09A420646069554D103F558439A698C
:1002BC002A4842F480429A619A6904A902F4804265
:1002CC000192019A9A69264C42F004029A619A6949
:1002DC0002F004020292029A5A6942F001025A6137
:1002EC005B694FF4007203F001030393039B022339
:1002FC00CDE904230323079300F0CAF84FF480637D
:10030C00164804A9CDE90435069500F0C1F8154B43
:10031C002046C4E900358023C4E903352023A560B9
:10032C00C4E90635656100F06FFC08B1FFF762FFA8
:10033C00002225201146F463666200F013FC252090
:10034C0000F040FC00220F20114600F00BFC0F20A7
:10035C0000F038FC08B070BD0038014000080140C6
:10036C0038000020580002407047FEE7FEE7FEE729
:10037C00FEE770477047704700F066B8014800F020
:10038C00B1BF00BF7C000020014800F00FBD00BFD2
:10039C0038000020704700000E4B82B09A6942F082
:1003AC0001029A619A6902F001020092009ADA69DC
:1003BC0042F08052DA61DB69074A03F08053019303
:1003CC00019B536823F0E06343F00073536002B069
:1003DC00704700BF001002400000014038B50E4BC2
:1003EC0005461A784FF47A73B3FBF2F30B4A106894
:1003FC00B0FBF3F000F0F4FB044658B90F2D09D80C
:10040C00024629464FF0FF3000F0ACFB2046044B6F
:10041C001D6038BD0120FCE7040000200000002016
:10042C0008000020074A08B51368032043F01003A6
:10043C00136000F085FB0F20FFF7D0FFFFF7ACFF38
:10044C00002008BD00200240034A044B11681B78B1
:10045C000B441360704700BFC40000200400002050
:10046C00014B1868704700BFC400002038B5044623
:10047C00FFF7F6FF0546631C1EBF044B1B78E41800
:10048C00FFF7EEFF431BA342FAD338BD0400002054
:10049C002DE9F74F00244FF00F0E2646DFF884C1EC
:1004AC00614B00F104080A6832FA06F502D103B078
:1004BC00BDE8F08F012505FA06F702EA070537EAD1
:1004CC00020276D14A68032A07D8013A022A00F2BE
:1004DC008380DFE802F091969C00122A00F0948051
:1004EC0069D8112A00F08A80FF2D94BF8146C1463D
:1004FC004FEA8602D9F8007088BF203A0EFA02FA49
:10050C0027EA0A0704FA02F21743C9F80070D1F877
:10051C00049019F0805F4CD0DCF8182026F003070B
:10052C0042F00102CCF81820DCF8182007F18047C3
:10053C0002F00102019207F5803706F0030A019AD6
:10054C004FEA8A0ABA680EFA0AFB22EA0B0B374A00
:10055C00904260D002F5806290425ED002F58062DB
:10056C0090425CD002F58062904214BF04220322B8
:10057C0002FA0AF242EA0B02BA609A6819F4801F76
:10058C0014BF2A43AA439A60DA6819F4001F14BFF7
:10059C002A43AA43DA605A6819F4003F14BF2A436D
:1005AC00AA435A601A6819F4803F14BF2A43AA431D
:1005BC001A60013677E7DFF878904A450CD014D8EA
:1005CC00A9F580194A4507D009F570294A4503D089
:1005DC00A9F580194A4587D18A68D2B1012A4FF012
:1005EC0008040CBF076147617EE7DFF848904A4575
:1005FC00F2D009F58039EDE7CC6875E7CC680434A6
:10060C0072E7CC6808346FE7CC680C346CE70024D4
:10061C006AE7042468E70022AAE70122A8E702227D
:10062C00A6E700BF00100240000401400008014092
:10063C0000002210000031100AB10161704709045A
:10064C00FBE700002DE9F341054638B30368DB07EF
:10065C0010D42B689F075ED42B68190700F1958086
:10066C002B685A0700F1C180EB69002B40F02C81FC
:10067C00002029E0904C636803F00C03042B07D096
:10068C00636803F00C03082B0AD16368DE0307D5FB
:10069C0023689C03DDD56B68002BDAD1012013E0B5
:1006AC006B68B3F5803F12D1236843F48033236029
:1006BC00FFF7D6FE064623689803CAD4FFF7D0FE90
:1006CC00801B6428F7D9032002B0BDE8F0819BB9E8
:1006DC00236823F480332360236823F4802323606E
:1006EC00FFF7BEFE064623689903B2D5FFF7B8FEA6
:1006FC00801B6428F7D9E6E7B3F5A02F236803D154
:10070C0043F480232360CFE723F4803323602368F2
:10071C0023F48023CBE7684C636813F00C0F07D0ED
:10072C00636803F00C03082B10D16368DA030DD453
:10073C0023689B0702D52B69012BAFD123686A690B
:10074C0023F0F80343EAC203236085E72A695B4B75
:10075C006AB101221A60FFF783FE064623689F07E1
:10076C00ECD4FFF77DFE801B0228F7D9ABE71A60AB
:10077C00FFF776FE0646236898077FF56DAFFFF707
:10078C006FFE801B0228F6D99DE7AA694A4E4B4B97
:10079C00E2B10122C3F88024FFF762FE0446736ABB
:1007AC009B070DD54FF4FA52454B1B68B3FBF2F384
:1007BC00019300BF019B5A1E0192002BF9D14FE708
:1007CC00FFF74EFE001B0228E9D97CE7C3F8802412
:1007DC00FFF746FE0446736A9F077FF541AFFFF7AC
:1007EC003FFE001B0228F6D96DE7334CE369D800B5
:1007FC0024D40127E36943F08053E361E36903F0F8
:10080C0080530093009B2F4E3368D90518D5EB68A5
:10081C00012B26D1236A43F001032362FFF720FE4C
:10082C0041F288380646236A9B073FD5002F3FF4D8
:10083C001BAFE36923F08053E36115E70027E2E780
:10084C00336843F480733360FFF70AFE80463368E5
:10085C00DA05DCD4FFF704FEA0EB08006428F6D917
:10086C0031E7ABB9236A41F2883823F001032362E4
:10087C00236A23F004032362FFF7F2FD0646236A82
:10088C009807D3D5FFF7ECFD801B4045F7D91AE745
:10089C00052B236A03D143F004032362BAE723F048
:1008AC0001032362236A23F00403B6E7FFF7D8FDA4
:1008BC00801B4045B7D906E70010024000004242B9
:1008CC0000000020007000402A4C626802F00C020C
:1008DC00082A3ED00022022B274B1A662CD1FFF798
:1008EC00BFFD06462368990120D42B6AB3F5803FDF
:1008FC0005D16268A96822F400320A436260696A11
:10090C0062680B4322F474121343012263601A4B86
:10091C001A66FFF7A5FD054623689A013FF5A8AEB8
:10092C00FFF79EFD401B0228F6D9CCE6FFF798FD99
:10093C00801B0228D6D9C6E6FFF792FD0546236830
:10094C009B017FF595AEFFF78BFD401B0228F6D976
:10095C00B9E6012B3FF4A2AE60682B6A00F480323A
:10096C009A427FF49BAE6B6A00F47010C01A18BFE9
:10097C000120A9E600100240000042420D4A5368D3
:10098C0003F00C01082912D10B48C3F38341DB039C
:10099C00405C09D55368094AC3F340435043084AA5
:1009AC00D35CB0FBF3F07047064B584370470348D9
:1009BC00704700BF001002402717000800127A0091
:1009CC002517000800093D002DE9F0410D460446AD
:1009DC0010B90120BDE8F081444A136803F0070305
:1009EC008B4228D321688E0730D4CA0743D43F4AA0
:1009FC00136803F00703AB4265D822683C4D12F034
:100A0C00040F6CD1130706D56B68226923F460536D
:100A1C0043EAC2036B60FFF7B1FF6B68354AC3F35F
:100A2C000313D35CD840344B1860344B1868FFF771
:100A3C00D5FC0020CEE7136823F007030B431360AB
:100A4C00136803F007038B42C3D1CBE7284B11F09B
:100A5C00040F1EBF5A6842F4E0625A60080742BF96
:100A6C005A6842F460525A605A68A06822F0F00248
:100A7C0002435A60B9E762681D4E012A33681AD1E5
:100A8C0013F4003FA5D0736841F2883823F00303B8
:100A9C0013437360FFF7E4FC07467368626803F066
:100AAC000C03B3EB820FA2D0FFF7DAFCC01B40455E
:100ABC00F3D903208EE7022A02D113F0007FE1E77D
:100ACC0013F0020FDEE7136823F007032B431360C8
:100ADC00136803F00703AB427FF47BAF8DE76B68C1
:100AEC00E16823F4E0630B436B608BE7002002406A
:100AFC00001002401517000800000020080000201C
:100B0C00044B054A5B68C3F30223D35C034A1068A9
:100B1C00D8407047001002400D170008000000205C
:100B2C00044B054A5B68C3F3C223D35C034A1068C9
:100B3C00D8407047001002400D170008000000203C
:100B4C0007490302CA6803F4E06322F4E06212046A
:100B5C00120C134343F0BF6343F40033CB60704774
:100B6C0000ED00E0154B30B5DC68C4F30224C4F191
:100B7C000703251D042B28BF0423062D4FF0FF353A
:100B8C0094BF0024033C05FA03F321EA0303A540B8
:100B9C0022EA0502A340002843EA0203ACBF00F19D
:100BAC006040074A4FEA0313DBB2ABBF00F561406C
:100BBC0000F00F0080F80033135430BD00ED00E05E
:100BCC0014ED00E0002807DB01234109034A00F083
:100BDC001F00834042F82130704700BF00E100E065
:100BEC000138B0F1807F0BD24FF0E023F021054AA1
:100BFC00586182F823100020072298611A6170470F
:100C0C000120704700ED00E0034610B530B30168D9
:100C1C001420134A0A44B2FBF0F292001A64114AEF
:100C2C00DA63022283F82120D3E901242243DC6811
:100C3C00086822431C696FF30D1022435C69224340
:100C4C009C692243DC69224302430A600020012292
:100C5C00986383F8200083F8212010BD0120FCE765
:100C6C00F8FFFDBF00000240F0B590F82040012CC9
:100C7C0034D0012480F8204090F82140012CE5B2BA
:100C8C004FF0000428D1022680F8216084630468A8
:100C9C00266826F001062660D0E90F67BD40756016
:100CAC0063604368102BC36A0BBFA260A160E16054
:100CBC00E2604BB1236843F00E03002023602368ED
:100CCC0043F001032360F0BD236823F00403236089
:100CDC00236843F00A03F0E780F820400220F2E793
:100CEC0090F821200346022A06D0042282630120B8
:100CFC00002283F8202070470268C06B116821F035
:100D0C000E011160116821F00101116001211A6CB2
:100D1C0001FA02F24260002083F82110E8E700009B
:100D2C0008B590F82130022B03D0042383630120F3
:100D3C0008BD03681A6822F00E021A601A6822F0C5
:100D4C0001021A60174A93421FD0143293421ED0EC
:100D5C00143293421DD0143293421DD0143293425C
:100D6C001DD01432934214BF4FF080734FF4801394
:100D7C000D4A5360012380F82130002380F8203085
:100D8C00436B03B198470020D2E70123F0E710230F
:100D9C00EEE74FF48073EBE74FF48053E8E74FF442
:100DAC008033E5E7080002400000024070B40425DF
:100DBC00C66B026C3468036895402542196832D0C2
:100DCC004D0730D51A6896065EBF1A6822F00402E9
:100DDC001A603E4A934219D01432934218D01432FE
:100DEC00934217D01432934217D01432934217D037
:100DFC001432934214BF4FF080634FF48003344A93
:100E0C005360C36A002B5ED070BC18470423F6E70E
:100E1C004023F4E74FF48063F1E74FF48043EEE7AF
:100E2C004FF48023EBE702259540254235D08D0702
:100E3C0033D51A68940606D41A6822F00A021A608E
:100E4C00012280F82120214A934219D01432934276
:100E5C0018D01432934217D01432934217D0143254
:100E6C00934217D01432934214BF4FF000734FF4D7
:100E7C000013174A5360002380F82030836AC1E7BF
:100E8C000223F6E72023F4E74FF40073F1E74FF465
:100E9C000053EEE74FF40033EBE70825954025426D
:100EAC0011D009070FD5196821F00E011960012323
:100EBC0003FA02F27260836380F82130002380F819
:100ECC002030036B9EE770BC704700BF08000240E7
:100EDC0000000240026802F10C0353E8003F23F4C7
:100EEC0090730C3242E8003102680029F2D102F111
:100EFC00140353E8003F23F0010302F1140C4CE8F7
:100F0C0000310029F3D1036B012B0BD102F10C033F
:100F1C0053E8003F23F0100302F10C0C4CE80031B5
:100F2C000029F3D1202380F842300023036370475B
:100F3C0010B504460368C1681A6922F440520A438A
:100F4C001A6182680069D9680243606921F4B05162
:100F5C0021F00C0102430A43DA605A69A16922F4B8
:100F6C0040720A435A610E4A934215D1FFF7D8FDDD
:100F7C0019234343626820689200B3FBF2F36422A6
:100F8C00B3FBF2F102FB11331B013233B3FBF2F36F
:100F9C0003EB0113836010BDFFF7B2FDE8E700BF60
:100FAC0000380140F8B504460E4617461D46226827
:100FBC00136836EA030301D1002028E06B1CF7D03C
:100FCC0025B1FFF74DFAC01B8542F0D2226802F121
:100FDC000C0353E8003F23F4D0730C3242E800308A
:100FEC0021680028F2D101F1140353E8003F23F0EB
:100FFC00010301F1140040E80032002AF3D1202350
:10100C00032084F8413084F8402084F84230F8BD45
:10101C0010B5044648B390F8413003F0FF021BB9F9
:10102C0080F84020FFF738F92423226884F84130F7
:10103C00D368204623F40053D360FFF779FF23686D
:10104C0000201A6922F490421A615A6922F02A028D
:10105C005A61DA6842F40052DA602023606484F842
:10106C00413084F84230606310BD0120FCE72DE96B
:10107C00F843984690F841300446202B0E4617460C
:10108C003CD100293CD0002A3AD0212300254564CC
:10109C0080F84130FFF7E4F9A3688146B3F5805F2F
:1010AC00A784E78403D123690BB935461E46E38C2C
:1010BC009BB253B943464A4640212046FFF772FF84
:1010CC0050B9202384F8413007E043464A4680213A
:1010DC002046FFF767FF10B10320BDE8F8832268B4
:1010EC004EB935F8023BC3F308035360E18C013968
:1010FC0089B2E184DBE716F8013BF6E70220ECE766
:10110C000120EAE7704770477047704708B5406A9E
:10111C0003685A6990F84110212912D1120610D592
:10112C000022C28403F10C0252E8002F22F0C0020C
:10113C0003F10C0C4CE800210029F3D1202280F89B
:10114C0041205B6990F84220222A05D15B0603D529
:10115C000023C385FFF7BEFE436C43F010034364CA
:10116C00FFF7D3FF08BD08B50023406AC385C384CD
:10117C00FFF7CBFF08BD704708B50123406A4363F6
:10118C00036B012B04D1818D4908FFF7F4FF08BDD7
:10119C00FFF7BAFFFBE708B503461B68406A1B68FC
:1011AC0013F0200337D1C385026802F10C0353E816
:1011BC00003F23F480730C3242E8003103680029AD
:1011CC00F2D103F1140252E8002F22F0010203F1D4
:1011DC00140C4CE800210029F3D103F1140252E85D
:1011EC00002F22F0400203F1140C4CE800210029DE
:1011FC00F3D1202280F84220026B012A0BD103F19B
:10120C000C0252E8002F22F0100203F10C0C4CE8F7
:10121C0000210029F3D100234363036B012B03D17D
:10122C00818DFFF7A8FF08BDFFF76DFFFBE790F876
:10123C00423007B5222B42D181680268B1F5805F3C
:10124C00836A3FD1016900293FD15268C2F3080279
:10125C0023F8022B8362C38D013B9BB2C385002B09
:10126C002DD10268D16821F02001D160D16821F420
:10127C008071D160516921F001015161202280F807
:10128C0042204363026B012A026828D1036302F1F6
:10129C000C0353E8003F23F0100302F10C0C4CE854
:1012AC0000310029F3D11368DB0605D501911368D1
:1012BC00019353680193019B818DFFF75CFF03B091
:1012CC005DF804FB39B9016929B95268D2B21A70B8
:1012DC00836A0133BEE7526802F07F02F7E7FFF73B
:1012EC0012FFECE7036873B51A6804461607D96851
:1012FC005D6908D1960668D58D0666D502B0BDE845
:10130C007040FFF794BF05F0010001F490750543A0
:10131C005BD0D60705D5CD0542BF636C43F0010306
:10132C006364530704D518B1636C43F00203636420
:10133C00960704D518B1636C43F004036364150776
:10134C0007D501F0200303431EBF636C43F0080371
:10135C006364636C002B32D0920604D58B0602D5E5
:10136C002046FFF764FF266820467369626C03F021
:10137C00400302F0080253EA020522D0FFF7AAFD4F
:10138C0073695E0618D5226802F1140353E8003F16
:10139C0023F04003143242E800310029F3D1E06B12
:1013AC0050B1744B4363FFF7BBFC40B1E06B436B34
:1013BC0002B0BDE8704018472046FFF7A6FE02B009
:1013CC0070BDFFF7A2FE6564F9E7206B012840F0C1
:1013DC009480D50640F19180C80640F18E800022A1
:1013EC0001921A6801925A680192019A5A6952063E
:1013FC004DD5E16B0A68526892B2002ADFD0A08DFD
:10140C009042DCD9E2858A69202A36D003F10C029D
:10141C0052E8002F22F4807203F10C0040E8002106
:10142C000029F3D103F1140252E8002F22F001023B
:10143C0003F1140040E800210029F3D103F1140258
:10144C0052E8002F22F0400203F1140040E8002182
:10145C000029F3D1202284F84220216303F10C02ED
:10146C0052E8002F22F0100203F10C0040E800219A
:10147C000029F3D1E06BFFF733FC02236363E38DA8
:10148C00A18DC91A89B22046FFF775FE97E7E28D48
:10149C00E08DA18D80B292B2002890D0891A89B2C9
:1014AC0000298CD003F10C0252E8002F22F4907228
:1014BC0003F10C0545E800200028F3D103F11402D8
:1014CC0052E8002F22F0010203F1140545E8002038
:1014DC000028F3D1202284F84220206303F10C026F
:1014EC0052E8002F22F0100203F10C0545E8002011
:1014FC000028F3D102236363C5E7160628D50D0631
:10150C0026D594F84120212A7FF459AFA168226A8C
:10151C00B1F5805F17D12169A9B932F8021BC1F36B
:10152C00080159602262E28C013A92B2E284002AEC
:10153C007FF445AFDA6822F08002DA60DA6842F0B4
:10154C004002DA603BE7511C216212785A60EAE7EC
:10155C0050067FF534AF4A067FF531AFDA68204686
:10156C0022F04002DA60202384F84130FFF7CAFDF4
:10157C0025E700BF7311000873B51346828500255B
:10158C00222204468162456480F84220C06B1D4AC9
:10159C00266882621C4AC2621C4AC0E90C250A46B3
:1015AC00311DFFF761FB236801951A6801925A6897
:1015BC000192019A22695AB103F10C0252E8002FF0
:1015CC0042F4807203F10C0040E800210029F3D1B1
:1015DC0003F1140252E8002F42F0010203F114004F
:1015EC0040E800210029F3D103F1140252E8002F46
:1015FC0042F0400203F1140141E800200028F3D12D
:10160C0002B070BDA3110008851100081911000863
:10161C0070B490F84260202E06D141B13AB100244A
:10162C00046370BCFFF7A8BF022070BC7047012098
:10163C00FBE70000FEF7AEFE0B480C490C4A0023FA
:10164C0002E0D458C4500433C4188C42F9D3094A6C
:10165C00094C002301E013600432A242FBD300F0DA
:10166C0017F8FEF76DFD7047000000200C000020FD
:10167C00401700080C000020C8000020FEE70346BD
:10168C000244934200D1704703F8011BF9E70000B4
:10169C0070B500260C4D0D4C641BA410A64209D14C
:1016AC0000F01AF800260A4D0A4C641BA410A6423E
:1016BC0005D170BD55F8043B98470136EEE755F857
:1016CC00043B98470136F2E7371700083717000834
:1016DC00381700083C170008F8B500BFF8BC08BC68
:1016EC009E467047F8B500BFF8BC08BC9E467047D4
:1016FC004345413A55534152543A504153530D0AC4
:10170C0000000000000102030400000000000000C3
:10171C00000102030406070809010202030405067E
:0B172C000708090A0B0C0D0E0F10102F
:041738003101000873
:04173C000D01000893
:0C17400000127A00010000001000000000
:040000050800164198
:00000001FF
