:020000040800F2
:1000000000500020B90A0008690200086B020008CD
:100010006D0200086F020008710200080000000075
:100020000000000000000000000000007302000853
:10003000750200080000000077020008790200083D
:10004000010B0008010B0008010B0008010B000860
:10005000010B0008010B00087D020008010B0008DD
:10006000010B0008010B0008010B0008010B000840
:10007000010B0008010B0008010B0008010B000830
:10008000010B0008010B0008010B0008010B000820
:10009000010B0008010B0008010B0008010B000810
:1000A000010B0008010B0008010B0008010B000800
:1000B000010B0008010B0008010B0008010B0008F0
:1000C000010B0008010B0008010B0008010B0008E0
:1000D000010B0008010B0008010B0008010B0008D0
:1000E000010B0008010B0008010B000800000000D4
:1000F0000000000000000000000000000000000000
:0C01000000000000000000005FF808F1A3
:10010C0010B5054C237833B9044B13B10448AFF345
:10011C0000800123237010BD0C00002000000000A3
:10012C005C0B000808B5034B1BB103490348AFF344
:10013C00008008BD00000000100000205C0B0008CF
:10014C0000B591B000F0DEF81422002108A800F0F0
:10015C00D2FC1422002101A800F0CDFC02244FF4A3
:10016C0080330122CDE90D43CDE906234FF4E01392
:10017C0006A80F9300F0D8F908B172B6FEE70F236A
:10018C00CDE901344FF480630390CDE9043021466E
:10019C0001A800F08BFB08B172B6FEE700F00CF87A
:1001AC00FEE70000012804D14FF40051014800F093
:1001BC00A6B9704700100140102270B588B00DEB45
:1001CC000200002100F097FC204B214E9A6930462A
:1001DC0042F010029A619A694FF4005102F0100239
:1001EC000192019A9A69012442F004029A619A6977
:1001FC00002502F004020292029A9A6942F001026E
:10020C009A619B69012203F001030393039B00F0A5
:10021C0071F94FF40053CDE904340223304604A99C
:10022C00CDE9065300F092F80A4B04A90A48CDE92F
:10023C000534049400F08AF82A462946062000F07A
:10024C00E3FB062000F010FC08B070BD001002406B
:10025C000010014000002110000801407047FEE72B
:10026C00FEE7FEE7FEE770477047704700F05CB8AA
:10027C00012000F04DB970470E4B82B09A6942F0E4
:10028C0001029A619A6902F001020092009ADA69FD
:10029C0042F08052DA61DB69074A03F08053019324
:1002AC00019B536823F0E06343F00073536002B08A
:1002BC00704700BF001002400000014038B50E4BE3
:1002CC0005461A784FF47A73B3FBF2F30B4A1068B5
:1002DC00B0FBF3F000F0D6FB044658B90F2D09D84B
:1002EC00024629464FF0FF3000F08EFB2046044BAF
:1002FC001D6038BD0120FCE7040000200000002038
:10030C0008000020074A08B51368032043F01003C7
:10031C00136000F067FB0F20FFF7D0FFFFF7ACFF77
:10032C00002008BD00200240034A044B11681B78D2
:10033C000B441360704700BF28000020040000200D
:10034C00014B1868704700BF280000202DE9F74FBB
:10035C0000244FF00F0E2646DFF884C1614B00F1EC
:10036C0004080A6832FA06F502D103B0BDE8F08F32
:10037C00012505FA06F702EA070537EA020276D1EB
:10038C004A68032A07D8013A022A00F28380DFE880
:10039C0002F091969C00122A00F0948069D8112AE0
:1003AC0000F08A80FF2D94BF8146C1464FEA860239
:1003BC00D9F8007088BF203A0EFA02FA27EA0A0729
:1003CC0004FA02F21743C9F80070D1F8049019F03E
:1003DC00805F4CD0DCF8182026F0030742F00102B5
:1003EC00CCF81820DCF8182007F1804702F0010245
:1003FC00019207F5803706F0030A019A4FEA8A0A40
:10040C00BA680EFA0AFB22EA0B0B374A904260D00C
:10041C0002F5806290425ED002F5806290425CD020
:10042C0002F58062904214BF0422032202FA0AF2FF
:10043C0042EA0B02BA609A6819F4801F14BF2A436F
:10044C00AA439A60DA6819F4001F14BF2A43AA431E
:10045C00DA605A6819F4003F14BF2A43AA435A6061
:10046C001A6819F4803F14BF2A43AA431A60013654
:10047C0077E7DFF878904A450CD014D8A9F58019A5
:10048C004A4507D009F570294A4503D0A9F58019CA
:10049C004A4587D18A68D2B1012A4FF008040CBFB3
:1004AC00076147617EE7DFF848904A45F2D009F5CD
:1004BC008039EDE7CC6875E7CC68043472E7CC681A
:1004CC0008346FE7CC680C346CE700246AE704242A
:1004DC0068E70022AAE70122A8E70222A6E700BFEC
:1004EC0000100240000401400008014000002210EE
:1004FC00000031100AB1016170470904FBE7C368C1
:10050C0001EA030221EA030141EA02410161704759
:10051C00044A08B55169014202D05061FFF742FE0E
:10052C0008BD00BF000401402DE9F341054638B376
:10053C000368DB0710D42B689F075ED42B68190760
:10054C0000F195802B685A0700F1C180EB69002BF4
:10055C0040F02C81002029E0904C636803F00C03E0
:10056C00042B07D0636803F00C03082B0AD16368D3
:10057C00DE0307D523689C03DDD56B68002BDAD12D
:10058C00012013E06B68B3F5803F12D1236843F46C
:10059C0080332360FFF7D4FE064623689803CAD441
:1005AC00FFF7CEFE801B6428F7D9032002B0BDE80C
:1005BC00F0819BB9236823F480332360236823F4F0
:1005CC0080232360FFF7BCFE064623689903B2D54F
:1005DC00FFF7B6FE801B6428F7D9E6E7B3F5A02F2A
:1005EC00236803D143F480232360CFE723F48033C3
:1005FC002360236823F48023CBE7684C636813F0F3
:10060C000C0F07D0636803F00C03082B10D1636840
:10061C00DA030DD423689B0702D52B69012BAFD1CC
:10062C0023686A6923F0F80343EAC203236085E771
:10063C002A695B4B6AB101221A60FFF781FE0646FC
:10064C0023689F07ECD4FFF77BFE801B0228F7D9A9
:10065C00ABE71A60FFF774FE0646236898077FF530
:10066C006DAFFFF76DFE801B0228F6D99DE7AA69D6
:10067C004A4E4B4BE2B10122C3F88024FFF760FED7
:10068C000446736A9B070DD54FF4FA52454B1B6811
:10069C00B3FBF2F3019300BF019B5A1E0192002B96
:1006AC00F9D14FE7FFF74CFE001B0228E9D97CE794
:1006BC00C3F88024FFF744FE0446736A9F077FF556
:1006CC0041AFFFF73DFE001B0228F6D96DE7334C16
:1006DC00E369D80024D40127E36943F08053E36134
:1006EC00E36903F080530093009B2F4E3368D905C8
:1006FC0018D5EB68012B26D1236A43F00103236242
:10070C00FFF71EFE41F288380646236A9B073FD549
:10071C00002F3FF41BAFE36923F08053E36115E72F
:10072C000027E2E7336843F480733360FFF708FE79
:10073C0080463368DA05DCD4FFF702FEA0EB080034
:10074C006428F6D931E7ABB9236A41F2883823F033
:10075C0001032362236A23F004032362FFF7F0FDF5
:10076C000646236A9807D3D5FFF7EAFD801B404560
:10077C00F7D91AE7052B236A03D143F0040323624C
:10078C00BAE723F001032362236A23F00403B6E7DC
:10079C00FFF7D6FD801B4045B7D906E70010024095
:1007AC000000424200000020007000402A4C6268A9
:1007BC0002F00C02082A3ED00022022B274B1A66AC
:1007CC002CD1FFF7BDFD06462368990120D42B6A76
:1007DC00B3F5803F05D16268A96822F400320A4360
:1007EC006260696A62680B4322F47412134301223B
:1007FC0063601A4B1A66FFF7A3FD054623689A013E
:10080C003FF5A8AEFFF79CFD401B0228F6D9CCE6BD
:10081C00FFF796FD801B0228D6D9C6E6FFF790FDA0
:10082C00054623689B017FF595AEFFF789FD401BBC
:10083C000228F6D9B9E6012B3FF4A2AE60682B6A08
:10084C0000F480329A427FF49BAE6B6A00F4701015
:10085C00C01A18BF0120A9E6001002400000424255
:10086C000D4A536803F00C01082912D10B48C3F34D
:10087C008341DB03405C09D55368094AC3F3404309
:10088C005043084AD35CB0FBF3F07047064B584317
:10089C0070470348704700BF00100240860B0008E9
:1008AC0000127A00840B000800093D002DE9F0418C
:1008BC000D46044610B90120BDE8F081444A136886
:1008CC0003F007038B4228D321688E0730D4CA0764
:1008DC0043D43F4A136803F00703AB4265D8226840
:1008EC003C4D12F0040F6CD1130706D56B682269CE
:1008FC0023F4605343EAC2036B60FFF7B1FF6B68EC
:10090C00354AC3F30313D35CD840344B1860344BD3
:10091C001868FFF7D3FC0020CEE7136823F0070319
:10092C000B431360136803F007038B42C3D1CBE76F
:10093C00284B11F0040F1EBF5A6842F4E0625A6053
:10094C00080742BF5A6842F460525A605A68A0685D
:10095C0022F0F00202435A60B9E762681D4E012A88
:10096C0033681AD113F4003FA5D0736841F288386C
:10097C0023F0030313437360FFF7E2FC074673682D
:10098C00626803F00C03B3EB820FA2D0FFF7D8FC24
:10099C00C01B4045F3D903208EE7022A02D113F085
:1009AC00007FE1E713F0020FDEE7136823F0070383
:1009BC002B431360136803F00703AB427FF47BAF48
:1009CC008DE76B68E16823F4E0630B436B608BE7A6
:1009DC000020024000100240740B000800000020B0
:1009EC000800002007490302CA6803F4E06322F4FC
:1009FC00E0621204120C134343F0BF6343F4003360
:100A0C00CB60704700ED00E0154B30B5DC68C4F3EB
:100A1C000224C4F10703251D042B28BF0423062D33
:100A2C004FF0FF3594BF0024033C05FA03F321EA91
:100A3C000303A54022EA0502A340002843EA02036F
:100A4C00ACBF00F16040074A4FEA0313DBB2ABBF07
:100A5C0000F5614000F00F0080F80033135430BDF6
:100A6C0000ED00E014ED00E0002807DB0123410954
:100A7C00034A00F01F00834042F82130704700BF4A
:100A8C0000E100E00138B0F1807F0BD24FF0E023A1
:100A9C00F021054A586182F8231000200722986142
:100AAC001A6170470120704700ED00E0FFF7E3FB8F
:100ABC000B480C490C4A002302E0D458C4500433B0
:100ACC00C4188C42F9D3094A094C002301E0136085
:100ADC000432A242FBD300F017F8FFF731FB70474A
:100AEC00000000200C000020A00B00080C000020CF
:100AFC002C000020FEE703460244934200D17047CD
:100B0C0003F8011BF9E7000070B500260C4D0D4CE5
:100B1C00641BA410A64209D100F01AF800260A4D55
:100B2C000A4C641BA410A64205D170BD55F8043BB9
:100B3C0098470136EEE755F8043B98470136F2E743
:100B4C00960B0008960B0008980B00089C0B0008ED
:100B5C00F8B500BFF8BC08BC9E467047F8B500BF9E
:080B6C00F8BC08BC9E4670476E
:100B74000000000000000000010203040607080949
:100B8400010202030405060708090A0B0C0D0E0FE7
:020B940010103F
:040B9800310100081F
:040B9C000D0100083F
:0C0BA00000127A000100000010000000AC
:0400000508000AB92C
:00000001FF
