:020000040800F2
:10000000005000204D0D0008FD020008FF0200080E
:1000100001030008030300080503000800000000B6
:1000200000000000000000000000000007030008BE
:1000300009030008000000000B0300080D0300087E
:10004000950D0008950D0008950D0008950D000808
:10005000950D0008950D0008950D0008950D0008F8
:10006000950D0008950D0008950D0008950D0008E8
:10007000950D0008950D0008950D0008950D0008D8
:10008000950D0008950D0008950D0008950D0008C8
:10009000950D0008950D0008950D0008950D0008B8
:1000A000950D0008950D0008950D0008950D0008A8
:1000B000950D0008950D0008950D0008950D000898
:1000C000950D0008950D0008950D0008950D000888
:1000D000950D0008950D0008950D0008950D000878
:1000E000950D0008950D0008950D00080000000012
:1000F0000000000000000000000000000000000000
:0C01000000000000000000005FF808F1A3
:10010C0010B5054C237833B9044B13B10448AFF345
:10011C0000800123237010BD0C00002000000000A3
:10012C00F00D000808B5034B1BB103490348AFF3AE
:10013C00008008BD0000000010000020F00D000839
:10014C0000B5244A93B05168106801AB03C300F0AA
:10015C0021F9142200210AA800F017FE1422002114
:10016C0003A800F012FE02244FF480330122CDE9E3
:10017C000F43CDE908234FF4E01308A8119300F0C6
:10018C0021FA08B172B6FEE70F23CDE903344FF420
:10019C0080630590CDE90630214603A800F0D4FB1E
:1001AC0008B172B6FEE700F01DF800F04FF80A4DEA
:1001BC000A4C4FF0FF33072201A9284600F075FDC9
:1001CC0020464FF4005100F0F4F94FF4FA7000F0AF
:1001DC0005F9EEE7080E0008280000200010014089
:1001EC0072B6FEE710B586B01022002102A800F00E
:1001FC00CCFD144B144C9A69204642F010029A61C3
:10020C009A694FF4005102F010020092009A9A6918
:10021C0042F004029A619B69012203F004030193EA
:10022C00019B00F0C1F94FF4005201230021CDE9EC
:10023C00022302232046CDE9041302A900F0E0F8C2
:10024C0006B010BD001002400010014008B54FF47C
:10025C00E1330A480A4AC0E9002300230C22C0E912
:10026C000233C0E905230361C36100F0EFFC18B150
:10027C00BDE80840FFF7B4BF08BD00BF2800002050
:10028C000038014010B500240268174B86B09A4222
:10029C00049427D103F558439A69144842F48042D8
:1002AC009A619A6902A902F480420092009A9A69B2
:1002BC0042F004029A619B694FF4007203F004034C
:1002CC000193019B0223CDE902230323059300F044
:1002DC0097F84FF48063054802A9CDE902340494E1
:1002EC0000F08EF806B010BD003801400008014047
:1002FC007047FEE7FEE7FEE7FEE770477047704782
:10030C0000F05AB8704700000E4B82B09A6942F068
:10031C0001029A619A6902F001020092009ADA696C
:10032C0042F08052DA61DB69074A03F08053019393
:10033C00019B536823F0E06343F00073536002B0F9
:10034C00704700BF001002400000014038B50E4B52
:10035C0005461A784FF47A73B3FBF2F30B4A106824
:10036C00B0FBF3F000F0EEFB044658B90F2D09D8A2
:10037C00024629464FF0FF3000F0B4FB2046044BF8
:10038C001D6038BD0120FCE70400002000000020A7
:10039C0008000020074A08B51368032043F0100337
:1003AC00136000F08DFB0F20FFF7D0FFFFF7ACFFC1
:1003BC00002008BD00200240034A044B11681B7842
:1003CC000B441360704700BF700000200400002035
:1003DC00014B1868704700BF7000002038B5044608
:1003EC00FFF7F6FF0546631C1EBF044B1B78E41891
:1003FC00FFF7EEFF431BA342FAD338BD04000020E5
:10040C002DE9F74F00244FF00F0E2646DFF884C17C
:10041C00614B00F104080A6832FA06F502D103B008
:10042C00BDE8F08F012505FA06F702EA070537EA61
:10043C00020276D14A68032A07D8013A022A00F24E
:10044C008380DFE802F091969C00122A00F09480E1
:10045C0069D8112A00F08A80FF2D94BF8146C146CD
:10046C004FEA8602D9F8007088BF203A0EFA02FAD9
:10047C0027EA0A0704FA02F21743C9F80070D1F808
:10048C00049019F0805F4CD0DCF8182026F003079C
:10049C0042F00102CCF81820DCF8182007F1804754
:1004AC0002F00102019207F5803706F0030A019A67
:1004BC004FEA8A0ABA680EFA0AFB22EA0B0B374A91
:1004CC00904260D002F5806290425ED002F580626C
:1004DC0090425CD002F58062904214BF0422032249
:1004EC0002FA0AF242EA0B02BA609A6819F4801F07
:1004FC0014BF2A43AA439A60DA6819F4001F14BF88
:10050C002A43AA43DA605A6819F4003F14BF2A43FD
:10051C00AA435A601A6819F4803F14BF2A43AA43AD
:10052C001A60013677E7DFF878904A450CD014D87A
:10053C00A9F580194A4507D009F570294A4503D019
:10054C00A9F580194A4587D18A68D2B1012A4FF0A2
:10055C0008040CBF076147617EE7DFF848904A4505
:10056C00F2D009F58039EDE7CC6875E7CC68043436
:10057C0072E7CC6808346FE7CC680C346CE7002465
:10058C006AE7042468E70022AAE70122A8E702220E
:10059C00A6E700BF00100240000401400008014023
:1005AC0000002210000031100AB1016170470904EB
:1005BC00FBE7C36801EA030221EA030141EA0241B5
:1005CC00016170472DE9F341054638B30368DB0739
:1005DC0010D42B689F075ED42B68190700F1958007
:1005EC002B685A0700F1C180EB69002B40F02C817D
:1005FC00002029E0904C636803F00C03042B07D017
:10060C00636803F00C03082B0AD16368DE0307D57B
:10061C0023689C03DDD56B68002BDAD1012013E035
:10062C006B68B3F5803F12D1236843F480332360A9
:10063C00FFF7CEFE064623689803CAD4FFF7C8FE20
:10064C00801B6428F7D9032002B0BDE8F0819BB968
:10065C00236823F480332360236823F480232360EE
:10066C00FFF7B6FE064623689903B2D5FFF7B0FE36
:10067C00801B6428F7D9E6E7B3F5A02F236803D1D4
:10068C0043F480232360CFE723F480332360236873
:10069C0023F48023CBE7684C636813F00C0F07D06E
:1006AC00636803F00C03082B10D16368DA030DD4D4
:1006BC0023689B0702D52B69012BAFD123686A698C
:1006CC0023F0F80343EAC203236085E72A695B4BF6
:1006DC006AB101221A60FFF77BFE064623689F076A
:1006EC00ECD4FFF775FE801B0228F7D9ABE71A6034
:1006FC00FFF76EFE0646236898077FF56DAFFFF790
:10070C0067FE801B0228F6D99DE7AA694A4E4B4B1F
:10071C00E2B10122C3F88024FFF75AFE0446736A43
:10072C009B070DD54FF4FA52454B1B68B3FBF2F304
:10073C00019300BF019B5A1E0192002BF9D14FE788
:10074C00FFF746FE001B0228E9D97CE7C3F880249A
:10075C00FFF73EFE0446736A9F077FF541AFFFF734
:10076C0037FE001B0228F6D96DE7334CE369D8003D
:10077C0024D40127E36943F08053E361E36903F078
:10078C0080530093009B2F4E3368D90518D5EB6826
:10079C00012B26D1236A43F001032362FFF718FED5
:1007AC0041F288380646236A9B073FD5002F3FF459
:1007BC001BAFE36923F08053E36115E70027E2E701
:1007CC00336843F480733360FFF702FE804633686E
:1007DC00DA05DCD4FFF7FCFDA0EB08006428F6D9A1
:1007EC0031E7ABB9236A41F2883823F00103236265
:1007FC00236A23F004032362FFF7EAFD0646236A0B
:10080C009807D3D5FFF7E4FD801B4045F7D91AE7CD
:10081C00052B236A03D143F004032362BAE723F0C8
:10082C0001032362236A23F00403B6E7FFF7D0FD2C
:10083C00801B4045B7D906E7001002400000424239
:10084C0000000020007000402A4C626802F00C028C
:10085C00082A3ED00022022B274B1A662CD1FFF718
:10086C00B7FD06462368990120D42B6AB3F5803F67
:10087C0005D16268A96822F400320A436260696A91
:10088C0062680B4322F474121343012263601A4B07
:10089C001A66FFF79DFD054623689A013FF5A8AE41
:1008AC00FFF796FD401B0228F6D9CCE6FFF790FD2A
:1008BC00801B0228D6D9C6E6FFF78AFD05462368B9
:1008CC009B017FF595AEFFF783FD401B0228F6D9FF
:1008DC00B9E6012B3FF4A2AE60682B6A00F48032BB
:1008EC009A427FF49BAE6B6A00F47010C01A18BF6A
:1008FC000120A9E600100240000042420D4A536854
:10090C0003F00C01082912D10B48C3F38341DB031C
:10091C00405C09D55368094AC3F340435043084A25
:10092C00D35CB0FBF3F07047064B58437047034859
:10093C00704700BF001002402A0E000800127A0017
:10094C00280E000800093D002DE9F0410D46044633
:10095C0010B90120BDE8F081444A136803F0070385
:10096C008B4228D321688E0730D4CA0743D43F4A20
:10097C00136803F00703AB4265D822683C4D12F0B4
:10098C00040F6CD1130706D56B68226923F46053EE
:10099C0043EAC2036B60FFF7B1FF6B68354AC3F3E0
:1009AC000313D35CD840344B1860344B1868FFF7F2
:1009BC00CDFC0020CEE7136823F007030B43136034
:1009CC00136803F007038B42C3D1CBE7284B11F01C
:1009DC00040F1EBF5A6842F4E0625A60080742BF17
:1009EC005A6842F460525A605A68A06822F0F002C9
:1009FC0002435A60B9E762681D4E012A33681AD166
:100A0C0013F4003FA5D0736841F2883823F0030338
:100A1C0013437360FFF7DCFC07467368626803F0EE
:100A2C000C03B3EB820FA2D0FFF7D2FCC01B4045E6
:100A3C00F3D903208EE7022A02D113F0007FE1E7FD
:100A4C0013F0020FDEE7136823F007032B43136048
:100A5C00136803F00703AB427FF47BAF8DE76B6841
:100A6C00E16823F4E0630B436B608BE700200240EA
:100A7C0000100240180E00080000002008000020A2
:100A8C00044B054A5B68C3F30223D35C034A10682A
:100A9C00D840704700100240100E000800000020E3
:100AAC00044B054A5B68C3F3C223D35C034A10684A
:100ABC00D840704700100240100E000800000020C3
:100ACC0007490302CA6803F4E06322F4E0621204EB
:100ADC00120C134343F0BF6343F40033CB607047F5
:100AEC0000ED00E0154B30B5DC68C4F30224C4F112
:100AFC000703251D042B28BF0423062D4FF0FF35BB
:100B0C0094BF0024033C05FA03F321EA0303A54038
:100B1C0022EA0502A340002843EA0203ACBF00F11D
:100B2C006040074A4FEA0313DBB2ABBF00F56140EC
:100B3C0000F00F0080F80033135430BD00ED00E0DE
:100B4C0014ED00E00138B0F1807F0BD24FF0E023C0
:100B5C00F021054A586182F8231000200722986181
:100B6C001A6170470120704700ED00E010B5044693
:100B7C000368C1681A6922F440520A431A618268F8
:100B8C000069D9680243606921F4B05121F00C016D
:100B9C0002430A43DA605A69A16922F440720A439B
:100BAC005A610E4A934215D1FFF77AFF192343433A
:100BBC00626820689200B3FBF2F36422B3FBF2F19B
:100BCC0002FB11331B013233B3FBF2F303EB0113C2
:100BDC00836010BDFFF754FFE8E700BF0038014009
:100BEC00F8B504460E4617461D462268136836EAC9
:100BFC00030301D1002028E06B1CF7D025B1FFF7CF
:100C0C00E7FBC01B8542F0D2226802F10C0353E8CB
:100C1C00003F23F4D0730C3242E8003021680028E6
:100C2C00F2D101F1140353E8003F23F0010301F169
:100C3C00140040E80032002AF3D12023032084F86A
:100C4C00413084F8402084F84230F8BD10B5044699
:100C5C0048B390F8413003F0FF021BB980F84020F4
:100C6C00FFF710FB2423226884F84130D368204618
:100C7C0023F40053D360FFF779FF236800201A692F
:100C8C0022F490421A615A6922F02A025A61DA68F7
:100C9C0042F40052DA602023606484F8413084F816
:100CAC004230606310BD0120FCE72DE9F843984603
:100CBC0090F841300446202B0E4617463CD10029B3
:100CCC003CD0002A3AD021230025456480F84130DD
:100CDC00FFF77EFBA3688146B3F5805FA784E784AA
:100CEC0003D123690BB935461E46E38C9BB253B92D
:100CFC0043464A4640212046FFF772FF50B9202355
:100D0C0084F8413007E043464A4680212046FFF7ED
:100D1C0067FF10B10320BDE8F88322684EB935F89F
:100D2C00023BC3F308035360E18C013989B2E184BF
:100D3C00DBE716F8013BF6E70220ECE70120EAE7D7
:100D4C00FFF7E0FA0B480C490C4A002302E0D45898
:100D5C00C4500433C4188C42F9D3094A094C0023FB
:100D6C0001E013600432A242FBD300F017F8FFF746
:100D7C00E7F97047000000200C000020440E00082A
:100D8C000C00002074000020FEE70346024493424E
:100D9C0000D1704703F8011BF9E7000070B500267D
:100DAC000C4D0D4C641BA410A64209D100F01AF88E
:100DBC0000260A4D0A4C641BA410A64205D170BD36
:100DCC0055F8043B98470136EEE755F8043B984735
:100DDC000136F2E73A0E00083A0E00083C0E000805
:100DEC00400E0008F8B500BFF8BC08BC9E46704722
:0C0DFC00F8B500BFF8BC08BC9E4670476C
:100E080048656C6C6F0D0A000000000001020304C5
:100E180000000000000000000102030406070809A2
:100E2800010202030405060708090A0B0C0D0E0F40
:020E3800101098
:040E3C003101000878
:040E40000D01000898
:0C0E440000127A00010000001000000005
:0400000508000D4D95
:00000001FF
