:020000040800F2
:10000000005000207D0E0008E9020008EB02000805
:10001000ED020008EF020008F102000800000000F5
:10002000000000000000000000000000F3020008D3
:10003000F502000800000000F7020008F9020008BD
:10004000C50E0008C50E0008C50E0008C50E000844
:10005000C50E0008C50E0008C50E0008C50E000834
:10006000C50E0008C50E0008C50E0008C50E000824
:10007000C50E0008C50E0008C50E0008C50E000814
:10008000C50E0008C50E0008C50E0008C50E000804
:10009000C50E0008C50E0008C50E0008C50E0008F4
:1000A000C50E0008C50E0008C50E0008C50E0008E4
:1000B000C50E0008C50E0008C50E0008C50E0008D4
:1000C000C50E0008C50E0008C50E0008C50E0008C4
:1000D000C50E0008C50E0008C50E0008C50E0008B4
:1000E000C50E0008C50E0008C50E0008000000007F
:1000F0000000000000000000000000000000000000
:0C01000000000000000000005FF808F1A3
:10010C0010B5054C237833B9044B13B10448AFF345
:10011C0000800123237010BD0C00002000000000A3
:10012C00200F000808B5034B1BB103490348AFF37C
:10013C00008008BD0000000010000020200F000807
:10014C0070B590B000F01CF91422002108A800F042
:10015C00B4FE1422002101A800F0AFFE02244FF4DB
:10016C0080330122CDE90D43CDE906234FF4E01392
:10017C0006A80F9300F01CFA08B172B6FEE70F2325
:10018C00CDE901344FF480630390CDE9043021466E
:10019C0001A800F0CFFB08B172B6FEE700F020F822
:1001AC0000F052F80B4E0C4D1024214602340A2359
:1001BC0001223046A4B200F0A7FDF02CF5D1284660
:1001CC004FF4005100F0EBF94FF4FA7000F0FCF82A
:1001DC00EAE700BF280000200010014072B6FEE7DD
:1001EC0010B586B01022002102A800F066FE144B58
:1001FC00144C9A69204642F010029A619A694FF4A5
:10020C00005102F010020092009A9A6942F0040226
:10021C009A619B69012203F004030193019B00F096
:10022C00B9F94FF4005201230021CDE90223022336
:10023C002046CDE9041302A900F0D8F806B010BD91
:10024C00001002400010014008B50B480B4A0C4B43
:10025C00C0E9002300234FF48042C0E90233C0E917
:10026C000423C0E90633036200F0A6FC18B1BDE814
:10027C000840FFF7B3BF08BD280000200054004021
:10028C00A08601007FB5002302680493114B9A42AB
:10029C001DD103F5DE33DA690F4842F40012DA613E
:1002AC00DA6902A902F400120092009A9A6942F0EB
:1002BC0008029A619B69C02203F008030193019B19
:1002CC001223CDE902230323059300F08FF807B026
:1002DC005DF804FB00540040000C01407047FEE741
:1002EC00FEE7FEE7FEE770477047704700F05AB82C
:1002FC00704700000E4B82B09A6942F001029A617D
:10030C009A6902F001020092009ADA6942F0805276
:10031C00DA61DB69074A03F080530193019B536850
:10032C0023F0E06343F00073536002B0704700BFEA
:10033C00001002400000014038B50E4B05461A78FB
:10034C004FF47A73B3FBF2F30B4A1068B0FBF3F083
:10035C0000F0DEFB044658B90F2D09D80246294699
:10036C004FF0FF3000F0A4FB2046044B1D6038BD5D
:10037C000120FCE704000020000000200800002001
:10038C00074A08B51368032043F01003136000F00C
:10039C007DFB0F20FFF7D0FFFFF7ACFF002008BD5F
:1003AC0000200240034A044B11681B780B44136075
:1003BC00704700BF7C00002004000020014B18682F
:1003CC00704700BF7C00002038B50446FFF7F6FFED
:1003DC000546631C1EBF044B1B78E418FFF7EEFFA9
:1003EC00431BA342FAD338BD040000202DE9F74F7C
:1003FC0000244FF00F0E2646DFF884C1614B00F14C
:10040C0004080A6832FA06F502D103B0BDE8F08F91
:10041C00012505FA06F702EA070537EA020276D14A
:10042C004A68032A07D8013A022A00F28380DFE8DF
:10043C0002F091969C00122A00F0948069D8112A3F
:10044C0000F08A80FF2D94BF8146C1464FEA860298
:10045C00D9F8007088BF203A0EFA02FA27EA0A0788
:10046C0004FA02F21743C9F80070D1F8049019F09D
:10047C00805F4CD0DCF8182026F0030742F0010214
:10048C00CCF81820DCF8182007F1804702F00102A4
:10049C00019207F5803706F0030A019A4FEA8A0A9F
:1004AC00BA680EFA0AFB22EA0B0B374A904260D06C
:1004BC0002F5806290425ED002F5806290425CD080
:1004CC0002F58062904214BF0422032202FA0AF25F
:1004DC0042EA0B02BA609A6819F4801F14BF2A43CF
:1004EC00AA439A60DA6819F4001F14BF2A43AA437E
:1004FC00DA605A6819F4003F14BF2A43AA435A60C1
:10050C001A6819F4803F14BF2A43AA431A600136B3
:10051C0077E7DFF878904A450CD014D8A9F5801904
:10052C004A4507D009F570294A4503D0A9F5801929
:10053C004A4587D18A68D2B1012A4FF008040CBF12
:10054C00076147617EE7DFF848904A45F2D009F52C
:10055C008039EDE7CC6875E7CC68043472E7CC6879
:10056C0008346FE7CC680C346CE700246AE7042489
:10057C0068E70022AAE70122A8E70222A6E700BF4B
:10058C00001002400004014000080140000022104D
:10059C00000031100AB1016170470904FBE7C36820
:1005AC0001EA030221EA030141EA024101617047B9
:1005BC002DE9F341054638B30368DB0710D42B68EB
:1005CC009F075ED42B68190700F195802B685A079A
:1005DC0000F1C180EB69002B40F02C81002029E058
:1005EC00904C636803F00C03042B07D0636803F092
:1005FC000C03082B0AD16368DE0307D523689C0320
:10060C00DDD56B68002BDAD1012013E06B68B3F5F4
:10061C00803F12D1236843F480332360FFF7CEFE72
:10062C00064623689803CAD4FFF7C8FE801B6428CB
:10063C00F7D9032002B0BDE8F0819BB9236823F4FD
:10064C0080332360236823F480232360FFF7B6FEF6
:10065C00064623689903B2D5FFF7B0FE801B6428C9
:10066C00F7D9E6E7B3F5A02F236803D143F4802331
:10067C002360CFE723F480332360236823F48023A3
:10068C00CBE7684C636813F00C0F07D0636803F07A
:10069C000C03082B10D16368DA030DD423689B0775
:1006AC0002D52B69012BAFD123686A6923F0F803BB
:1006BC0043EAC203236085E72A695B4B6AB10122D6
:1006CC001A60FFF77BFE064623689F07ECD4FFF702
:1006DC0075FE801B0228F7D9ABE71A60FFF76EFE98
:1006EC000646236898077FF56DAFFFF767FE801B02
:1006FC000228F6D99DE7AA694A4E4B4BE2B101227A
:10070C00C3F88024FFF75AFE0446736A9B070DD585
:10071C004FF4FA52454B1B68B3FBF2F3019300BF45
:10072C00019B5A1E0192002BF9D14FE7FFF746FEB1
:10073C00001B0228E9D97CE7C3F88024FFF73EFEB2
:10074C000446736A9F077FF541AFFFF737FE001B26
:10075C000228F6D96DE7334CE369D80024D401277D
:10076C00E36943F08053E361E36903F08053009342
:10077C00009B2F4E3368D90518D5EB68012B26D179
:10078C00236A43F001032362FFF718FE41F2883815
:10079C000646236A9B073FD5002F3FF41BAFE36946
:1007AC0023F08053E36115E70027E2E7336843F455
:1007BC0080733360FFF702FE80463368DA05DCD4C1
:1007CC00FFF7FCFDA0EB08006428F6D931E7ABB9C4
:1007DC00236A41F2883823F001032362236A23F051
:1007EC0004032362FFF7EAFD0646236A9807D3D574
:1007FC00FFF7E4FD801B4045F7D91AE7052B236A68
:10080C0003D143F004032362BAE723F0010323620C
:10081C00236A23F00403B6E7FFF7D0FD801B4045A5
:10082C00B7D906E700100240000042420000002049
:10083C00007000402A4C626802F00C02082A3ED07C
:10084C000022022B274B1A662CD1FFF7B7FD064668
:10085C002368990120D42B6AB3F5803F05D16268D7
:10086C00A96822F400320A436260696A62680B4329
:10087C0022F474121343012263601A4B1A66FFF7B9
:10088C009DFD054623689A013FF5A8AEFFF796FD3E
:10089C00401B0228F6D9CCE6FFF790FD801B0228FE
:1008AC00D6D9C6E6FFF78AFD054623689B017FF57E
:1008BC0095AEFFF783FD401B0228F6D9B9E6012B54
:1008CC003FF4A2AE60682B6A00F480329A427FF447
:1008DC009BAE6B6A00F47010C01A18BF0120A9E619
:1008EC0000100240000042420D4A536803F00C0114
:1008FC00082912D10B48C3F38341DB03405C09D5B3
:10090C005368094AC3F340435043084AD35CB0FBD5
:10091C00F3F07047064B584370470348704700BFCD
:10092C0000100240520F000800127A00500F00080D
:10093C0000093D002DE9F0410D46044610B9012097
:10094C00BDE8F081444A136803F007038B4228D3B7
:10095C0021688E0730D4CA0743D43F4A136803F08A
:10096C000703AB4265D822683C4D12F0040F6CD1E2
:10097C00130706D56B68226923F4605343EAC2035C
:10098C006B60FFF7B1FF6B68354AC3F30313D35C9D
:10099C00D840344B1860344B1868FFF7CDFC00205E
:1009AC00CEE7136823F007030B431360136803F0BF
:1009BC0007038B42C3D1CBE7284B11F0040F1EBFAA
:1009CC005A6842F4E0625A60080742BF5A6842F41F
:1009DC0060525A605A68A06822F0F00202435A60D2
:1009EC00B9E762681D4E012A33681AD113F4003F2F
:1009FC00A5D0736841F2883823F003031343736066
:100A0C00FFF7DCFC07467368626803F00C03B3EB7A
:100A1C00820FA2D0FFF7D2FCC01B4045F3D90320B4
:100A2C008EE7022A02D113F0007FE1E713F0020FE8
:100A3C00DEE7136823F007032B431360136803F0FE
:100A4C000703AB427FF47BAF8DE76B68E16823F45F
:100A5C00E0630B436B608BE7002002400010024008
:100A6C00400F00080000002008000020044B054A3D
:100A7C005B68C3F30223D35C034A1068D840704709
:100A8C0000100240380F0008000000200749030244
:100A9C00CA6803F4E06322F4E0621204120C1343FC
:100AAC0043F0BF6343F40033CB60704700ED00E0CC
:100ABC00154B30B5DC68C4F30224C4F10703251DC3
:100ACC00042B28BF0423062D4FF0FF3594BF0024C0
:100ADC00033C05FA03F321EA0303A54022EA0502CD
:100AEC00A340002843EA0203ACBF00F16040074A70
:100AFC004FEA0313DBB2ABBF00F5614000F00F000F
:100B0C0080F80033135430BD00ED00E014ED00E02C
:100B1C000138B0F1807F0BD24FF0E023F021054A71
:100B2C00586182F823100020072298611A617047DF
:100B3C000120704700ED00E02DE9F84606460F460F
:100B4C0091461D464FEA114A3368BAF1010F0CBFAA
:100B5C005C699C6927EA0404A4B2B4FA84F46409BD
:100B6C00A14501D0002025E06A1CEED0FFF726FC41
:100B7C00089BC01AA84201D8002DE5D13368BAF100
:100B8C00010F0CBF5B699B6927EA03039BB2B3FAA5
:100B9C0083F35B099945D7D10023202201203363CD
:100BAC0086F83D2086F83E30326C86F83C3042F0B8
:100BBC0020023264BDE8F88670B5044608B90120FD
:100BCC0070BD90F83D3003F0FF021BB980F83C205B
:100BDC00FFF758FB242384F83D3023681A6822F071
:100BEC0001021A601A6842F400421A601A6822F470
:100BFC0000421A60FFF73AFF3F4B65689D4294BF75
:100C0C003E4B3F4B98428CBF00230123002BD6D187
:100C1C00394E3C4BB542B0FBF3F388BF4FF496769C
:100C2C002268516821F03F0141EA030182BF7343FE
:100C3C004FF47A76B3FBF6F35160116A013321F06D
:100C4C003F010B431362D169431E2B4821F44F41E2
:100C5C00854221F0FF0132D86D00B3FBF5F340F66D
:100C6C00FC700133034242D0C3F30B031943D1612F
:100C7C001168D4E9073021F0C00103430B43136022
:100C8C009168D4E9030321F40341034321F0FF01EC
:100C9C000B439360D168D4E9053021F0FF01034385
:100CAC000B43D3601368002043F00103136020232F
:100CBC00206484F83D30206384F83E0080E7A0680F
:100CCC0050B905EB4505B3FBF5F30133C3F30B0347
:100CDC007BB143F40043C9E719206843B3FBF0F33D
:100CEC000133C3F30B0323B143F44043BEE70423A6
:100CFC00BCE70123BAE700BFA08601007F841E0079
:100D0C00FF083D0040420F002DE9F04F044685B02E
:100D1C001F4688469246FFF751FB94F83D30054636
:100D2C00202B03D0022005B0BDE8F08F00901923D2
:100D3C00012220464C49FFF7FFFE0028F2D194F81F
:100D4C003C30012BEED0012384F83C302368002684
:100D5C001A68DFF814B1D00758BF1A6808F0FE08FB
:100D6C005CBF42F001021A601A6822F400621A6039
:100D7C00242384F83D303D4B2664E36222684FF017
:100D8C0001111368204643F4807313603B46002224
:100D9C000095FFF7D1FE236838B11B680320D905F5
:100DAC0044BF4FF400732364BDE7C3F81080FFF712
:100DBC0005FB4FF0A009054623685A695B69C2F32D
:100DCC004002C3F3802394F83D10A0291CD14FF0AE
:100DDC002009236884F83D905A6992072BD51A682C
:100DEC00204642F400721A60002203925A691E498E
:100DFC0003929B6901220393039B00951923FFF730
:100E0C009BFE98B101208EE71343E0D1FFF7D6FA91
:100E1C00401BB84200D80FB984F83D9023685A693A
:100E2C005B69C2F34002C3F38023CCE784F83D90A6
:100E3C0084F83C0077E71A68594642F400721A604D
:100E4C006FF4806220465A61192301220095FFF746
:100E5C0073FE0028D6D1013656458FD384F83D90C9
:100E6C0084F83C00CEE700BF020010000000FFFF3A
:100E7C00FFF73EFA0B480C490C4A002302E0D45809
:100E8C00C4500433C4188C42F9D3094A094C0023CA
:100E9C0001E013600432A242FBD300F017F8FFF715
:100EAC004FF97047000000200C0000206C0F000868
:100EBC000C00002080000020FEE703460244934211
:100ECC0000D1704703F8011BF9E7000070B500264C
:100EDC000C4D0D4C641BA410A64209D100F01AF85D
:100EEC0000260A4D0A4C641BA410A64205D170BD05
:100EFC0055F8043B98470136EEE755F8043B984704
:100F0C000136F2E7620F0008620F0008640F000858
:100F1C00680F0008F8B500BFF8BC08BC9E467047C7
:0C0F2C00F8B500BFF8BC08BC9E4670473A
:100F3800000000000102030400000000000000009F
:100F48000102030406070809010202030405060753
:0A0F580008090A0B0C0D0E0F101013
:040F6400310100084F
:040F68000D0100086F
:0C0F6C0000127A000100000010000000DC
:0400000508000E7D64
:00000001FF
