:020000040800F2
:1000000000500020651100081503000817030008C0
:10001000190300081B0300081D030008000000006E
:100020000000000000000000000000001F030008A6
:100030002103000800000000230300082503000836
:10004000AD110008AD110008AD110008AD11000898
:10005000AD110008AD110008AD110008AD11000888
:10006000AD110008AD110008AD110008AD11000878
:10007000AD110008AD110008AD110008AD11000868
:10008000AD110008AD110008AD110008AD11000858
:10009000AD110008AD110008AD110008AD11000848
:1000A000AD110008AD110008AD110008AD11000838
:1000B000AD110008AD110008AD110008AD11000828
:1000C000AD110008AD110008AD110008AD11000818
:1000D000AD11000829030008AD110008AD1100089A
:1000E000AD110008AD110008AD11000800000000BE
:1000F0000000000000000000000000000000000000
:0C01000000000000000000005FF808F1A3
:10010C0010B5054C237833B9044B13B10448AFF345
:10011C0000800123237010BD0C00002000000000A3
:10012C000812000808B5034B1BB103490348AFF391
:10013C00008008BD0000000010000020081200081C
:10014C0000B591B000F038F91422002108A801F094
:10015C0028F81422002101A801F023F801254FF4FE
:10016C0080330224CDE90653CDE90D434FF4E0135F
:10017C0006A80F9300F01EFA08B172B6FEE70F2323
:10018C00CDE901344FF480630390CDE9043021466E
:10019C0001A800F0D1FB08B172B6FEE700F026F81A
:1001AC0000F058F82A460249024800F0C4FFFEE766
:1001BC00280000202C00002008B50268074B9A424A
:1001CC000BD101220649074800F0D3FDBDE80840D9
:1001DC0001220349034800F0AEBF08BD00380140BE
:1001EC00280000202C00002072B6FEE710B586B067
:1001FC001022002102A800F0D4FF144B144C9A6971
:10020C00204642F010029A619A694FF4005102F0B4
:10021C0010020092009A9A6942F004029A619B695A
:10022C00012203F004030193019B00F0BDF94FF48C
:10023C00005201230021CDE9022302232046CDE9FF
:10024C00041302A900F0DCF806B010BD0010024047
:10025C000010014008B54FF4E1330A480A4AC0E9DE
:10026C00002300230C22C0E90233C0E905230361FB
:10027C00C36100F04FFD18B1BDE80840FFF7B4BFF3
:10028C0008BD00BF2C0000200038014010B5002430
:10029C0002681B4B86B09A4204942FD103F5584345
:1002AC009A69184842F480429A619A6902A902F448
:1002BC0080420092009A9A6942F004029A619B690A
:1002CC004FF4007203F004030193019B0223CDE968
:1002DC0002230323059300F093F84FF4806309483D
:1002EC0002A9CDE90234049400F08AF825202246B4
:1002FC00214600F0EFFB252000F01CFC06B010BDE1
:10030C0000380140000801407047FEE7FEE7FEE7B9
:10031C00FEE770477047704700F060B8014800F086
:10032C00A7BD00BF2C000020704700000E4B82B010
:10033C009A6942F001029A619A6902F001020092F4
:10034C00009ADA6942F08052DA61DB69074A03F0FD
:10035C0080530193019B536823F0E06343F00073D7
:10036C00536002B0704700BF001002400000014013
:10037C0038B50E4B05461A784FF47A73B3FBF2F38B
:10038C000B4A1068B0FBF3F000F0E2FB044658B9DE
:10039C000F2D09D8024629464FF0FF3000F09AFB8A
:1003AC002046044B1D6038BD0120FCE704000020F2
:1003BC000000002008000020074A08B5136803203D
:1003CC0043F01003136000F073FB0F20FFF7D0FF16
:1003DC00FFF7ACFF002008BD00200240034A044B8D
:1003EC0011681B780B441360704700BF7400002029
:1003FC0004000020014B1868704700BF74000020F7
:10040C002DE9F74F00244FF00F0E2646DFF884C17C
:10041C00614B00F104080A6832FA06F502D103B008
:10042C00BDE8F08F012505FA06F702EA070537EA61
:10043C00020276D14A68032A07D8013A022A00F24E
:10044C008380DFE802F091969C00122A00F09480E1
:10045C0069D8112A00F08A80FF2D94BF8146C146CD
:10046C004FEA8602D9F8007088BF203A0EFA02FAD9
:10047C0027EA0A0704FA02F21743C9F80070D1F808
:10048C00049019F0805F4CD0DCF8182026F003079C
:10049C0042F00102CCF81820DCF8182007F1804754
:1004AC0002F00102019207F5803706F0030A019A67
:1004BC004FEA8A0ABA680EFA0AFB22EA0B0B374A91
:1004CC00904260D002F5806290425ED002F580626C
:1004DC0090425CD002F58062904214BF0422032249
:1004EC0002FA0AF242EA0B02BA609A6819F4801F07
:1004FC0014BF2A43AA439A60DA6819F4001F14BF88
:10050C002A43AA43DA605A6819F4003F14BF2A43FD
:10051C00AA435A601A6819F4803F14BF2A43AA43AD
:10052C001A60013677E7DFF878904A450CD014D87A
:10053C00A9F580194A4507D009F570294A4503D019
:10054C00A9F580194A4587D18A68D2B1012A4FF0A2
:10055C0008040CBF076147617EE7DFF848904A4505
:10056C00F2D009F58039EDE7CC6875E7CC68043436
:10057C0072E7CC6808346FE7CC680C346CE7002465
:10058C006AE7042468E70022AAE70122A8E702220E
:10059C00A6E700BF00100240000401400008014023
:1005AC0000002210000031100AB1016170470904EB
:1005BC00FBE700002DE9F341054638B30368DB0780
:1005CC0010D42B689F075ED42B68190700F1958017
:1005DC002B685A0700F1C180EB69002B40F02C818D
:1005EC00002029E0904C636803F00C03042B07D027
:1005FC00636803F00C03082B0AD16368DE0307D58C
:10060C0023689C03DDD56B68002BDAD1012013E045
:10061C006B68B3F5803F12D1236843F480332360B9
:10062C00FFF7E8FE064623689803CAD4FFF7E2FEFC
:10063C00801B6428F7D9032002B0BDE8F0819BB978
:10064C00236823F480332360236823F480232360FE
:10065C00FFF7D0FE064623689903B2D5FFF7CAFE12
:10066C00801B6428F7D9E6E7B3F5A02F236803D1E4
:10067C0043F480232360CFE723F480332360236883
:10068C0023F48023CBE7684C636813F00C0F07D07E
:10069C00636803F00C03082B10D16368DA030DD4E4
:1006AC0023689B0702D52B69012BAFD123686A699C
:1006BC0023F0F80343EAC203236085E72A695B4B06
:1006CC006AB101221A60FFF795FE064623689F0760
:1006DC00ECD4FFF78FFE801B0228F7D9ABE71A602A
:1006EC00FFF788FE0646236898077FF56DAFFFF786
:1006FC0081FE801B0228F6D99DE7AA694A4E4B4B16
:10070C00E2B10122C3F88024FFF774FE0446736A39
:10071C009B070DD54FF4FA52454B1B68B3FBF2F314
:10072C00019300BF019B5A1E0192002BF9D14FE798
:10073C00FFF760FE001B0228E9D97CE7C3F8802490
:10074C00FFF758FE0446736A9F077FF541AFFFF72A
:10075C0051FE001B0228F6D96DE7334CE369D80033
:10076C0024D40127E36943F08053E361E36903F088
:10077C0080530093009B2F4E3368D90518D5EB6836
:10078C00012B26D1236A43F001032362FFF732FECB
:10079C0041F288380646236A9B073FD5002F3FF469
:1007AC001BAFE36923F08053E36115E70027E2E711
:1007BC00336843F480733360FFF71CFE8046336864
:1007CC00DA05DCD4FFF716FEA0EB08006428F6D996
:1007DC0031E7ABB9236A41F2883823F00103236275
:1007EC00236A23F004032362FFF704FE0646236A00
:1007FC009807D3D5FFF7FEFD801B4045F7D91AE7C4
:10080C00052B236A03D143F004032362BAE723F0D8
:10081C0001032362236A23F00403B6E7FFF7EAFD22
:10082C00801B4045B7D906E7001002400000424249
:10083C0000000020007000402A4C626802F00C029C
:10084C00082A3ED00022022B274B1A662CD1FFF728
:10085C00D1FD06462368990120D42B6AB3F5803F5D
:10086C0005D16268A96822F400320A436260696AA1
:10087C0062680B4322F474121343012263601A4B17
:10088C001A66FFF7B7FD054623689A013FF5A8AE37
:10089C00FFF7B0FD401B0228F6D9CCE6FFF7AAFD06
:1008AC00801B0228D6D9C6E6FFF7A4FD05462368AF
:1008BC009B017FF595AEFFF79DFD401B0228F6D9F5
:1008CC00B9E6012B3FF4A2AE60682B6A00F48032CB
:1008DC009A427FF49BAE6B6A00F47010C01A18BF7A
:1008EC000120A9E600100240000042420D4A536864
:1008FC0003F00C01082912D10B48C3F38341DB032D
:10090C00405C09D55368094AC3F340435043084A35
:10091C00D35CB0FBF3F07047064B58437047034869
:10092C00704700BF001002403A12000800127A0013
:10093C003812000800093D002DE9F0410D4604462F
:10094C0010B90120BDE8F081444A136803F0070395
:10095C008B4228D321688E0730D4CA0743D43F4A30
:10096C00136803F00703AB4265D822683C4D12F0C4
:10097C00040F6CD1130706D56B68226923F46053FE
:10098C0043EAC2036B60FFF7B1FF6B68354AC3F3F0
:10099C000313D35CD840344B1860344B1868FFF702
:1009AC00E7FC0020CEE7136823F007030B4313602A
:1009BC00136803F007038B42C3D1CBE7284B11F02C
:1009CC00040F1EBF5A6842F4E0625A60080742BF27
:1009DC005A6842F460525A605A68A06822F0F002D9
:1009EC0002435A60B9E762681D4E012A33681AD176
:1009FC0013F4003FA5D0736841F2883823F0030349
:100A0C0013437360FFF7F6FC07467368626803F0E4
:100A1C000C03B3EB820FA2D0FFF7ECFCC01B4045DC
:100A2C00F3D903208EE7022A02D113F0007FE1E70D
:100A3C0013F0020FDEE7136823F007032B43136058
:100A4C00136803F00703AB427FF47BAF8DE76B6851
:100A5C00E16823F4E0630B436B608BE700200240FA
:100A6C00001002402812000800000020080000209E
:100A7C00044B054A5B68C3F30223D35C034A10683A
:100A8C00D8407047001002402012000800000020DF
:100A9C00044B054A5B68C3F3C223D35C034A10685A
:100AAC00D8407047001002402012000800000020BF
:100ABC0007490302CA6803F4E06322F4E0621204FB
:100ACC00120C134343F0BF6343F40033CB60704705
:100ADC0000ED00E0154B30B5DC68C4F30224C4F122
:100AEC000703251D042B28BF0423062D4FF0FF35CB
:100AFC0094BF0024033C05FA03F321EA0303A54049
:100B0C0022EA0502A340002843EA0203ACBF00F12D
:100B1C006040074A4FEA0313DBB2ABBF00F56140FC
:100B2C0000F00F0080F80033135430BD00ED00E0EE
:100B3C0014ED00E0002807DB01234109034A00F013
:100B4C001F00834042F82130704700BF00E100E0F5
:100B5C000138B0F1807F0BD24FF0E023F021054A31
:100B6C00586182F823100020072298611A6170479F
:100B7C000120704700ED00E090F821200346022A86
:100B8C0006D0042282630120002283F820207047C3
:100B9C000268C06B116821F00E011160116821F020
:100BAC000101116001211A6C01FA02F2426000206D
:100BBC0083F82110E8E7000008B590F82130022BEB
:100BCC0003D004238363012008BD03681A6822F054
:100BDC000E021A601A6822F001021A60174A934238
:100BEC001FD0143293421ED0143293421DD01432B3
:100BFC0093421DD0143293421DD01432934214BF31
:100C0C004FF080734FF480130D4A5360012380F82A
:100C1C002130002380F82030436B03B1984700202B
:100C2C00D2E70123F0E71023EEE74FF48073EBE7F4
:100C3C004FF48053E8E74FF48033E5E708000240B7
:100C4C0000000240026802F10C0353E8003F23F459
:100C5C0090730C3242E8003102680029F2D102F1A3
:100C6C00140353E8003F23F0010302F1140C4CE889
:100C7C0000310029F3D1036B012B0BD102F10C03D2
:100C8C0053E8003F23F0100302F10C0C4CE8003148
:100C9C000029F3D1202380F84230002303637047EE
:100CAC0010B504460368C1681A6922F440520A431D
:100CBC001A6182680069D9680243606921F4B051F5
:100CCC0021F00C0102430A43DA605A69A16922F44B
:100CDC0040720A435A610E4A934215D1FFF7D8FE6F
:100CEC0019234343626820689200B3FBF2F3642239
:100CFC00B3FBF2F102FB11331B013233B3FBF2F302
:100D0C0003EB0113836010BDFFF7B2FEE8E700BFF1
:100D1C000038014010B5044648B390F8413003F058
:100D2C00FF021BB980F84020FFF7B0FA2423226899
:100D3C0084F84130D368204623F40053D360FFF786
:100D4C00AFFF236800201A6922F490421A615A6995
:100D5C0022F02A025A61DA6842F40052DA60202347
:100D6C00606484F8413084F84230606310BD012027
:100D7C00FCE790F84130202B10D189B182B1C284AC
:100D8C0082840023212201620168436480F841209F
:100D9C00CA68184642F08002CA6070470220704749
:100DAC00012070477047704708B50023406AC3851F
:100DBC00C384FFF7F8FF08BD704790F8423007B5C1
:100DCC00222B42D181680268B1F5805F836A3FD1E2
:100DDC00016900293FD15268C2F3080223F8022BA3
:100DEC008362C38D013B9BB2C385002B2DD102685E
:100DFC00D16821F02001D160D16821F48071D160DB
:100E0C00516921F001015161202280F84220436395
:100E1C00026B012A026828D1036302F10C0353E828
:100E2C00003F23F0100302F10C0C4CE800310029B8
:100E3C00F3D11368DB0605D5019113680193536850
:100E4C000193019B818DFFF7B7FF03B05DF804FBA5
:100E5C0039B9016929B95268D2B21A70836A01335F
:100E6C00BEE7526802F07F02F7E7FFF7A5F9ECE75F
:100E7C00036873B51A6804461607D9685D6908D10A
:100E8C00960668D58D0666D502B0BDE87040FFF7B2
:100E9C0094BF05F0010001F4907505435BD0D607B3
:100EAC0005D5CD0542BF636C43F001036364530762
:100EBC0004D518B1636C43F002036364960704D540
:100ECC0018B1636C43F004036364150707D501F094
:100EDC00200303431EBF636C43F008036364636C1D
:100EEC00002B32D0920604D58B0602D52046FFF794
:100EFC0064FF266820467369626C03F0400302F0BD
:100F0C00080253EA020522D0FFF79CFE73695E06C5
:100F1C0018D5226802F1140353E8003F23F0400374
:100F2C00143242E800310029F3D1E06B50B1744B1C
:100F3C004363FFF741FE40B1E06B436B02B0BDE889
:100F4C00704018472046FFF72EFF02B070BDFFF728
:100F5C002AFF6564F9E7206B012840F09480D506E0
:100F6C0040F19180C80640F18E80002201921A68EF
:100F7C0001925A680192019A5A6952064DD5E16B59
:100F8C000A68526892B2002ADFD0A08D9042DCD958
:100F9C00E2858A69202A36D003F10C0252E8002F30
:100FAC0022F4807203F10C0040E800210029F3D1F7
:100FBC0003F1140252E8002F22F0010203F1140095
:100FCC0040E800210029F3D103F1140252E8002F6C
:100FDC0022F0400203F1140040E800210029F3D173
:100FEC00202284F84220216303F10C0252E8002FE6
:100FFC0022F0100203F10C0040E800210029F3D18B
:10100C00E06BFFF7B9FD02236363E38DA18DC91A71
:10101C0089B22046FFF7D0FE97E7E28DE08DA18DD7
:10102C0080B292B2002890D0891A89B200298CD053
:10103C0003F10C0252E8002F22F4907203F10C051C
:10104C0045E800200028F3D103F1140252E8002FE8
:10105C0022F0010203F1140545E800200028F3D129
:10106C00202284F84220206303F10C0252E8002F66
:10107C0022F0100203F10C0545E800200028F3D102
:10108C0002236363C5E7160628D50D0626D594F80A
:10109C004120212A7FF459AFA168226AB1F5805F03
:1010AC0017D12169A9B932F8021BC1F308015960A3
:1010BC002262E28C013A92B2E284002A7FF445AFBC
:1010CC00DA6822F08002DA60DA6842F04002DA6014
:1010DC003BE7511C216212785A60EAE750067FF513
:1010EC0034AF4A067FF531AFDA68204622F0400271
:1010FC00DA60202384F84130FFF754FE25E700BF67
:10110C00B50D00080023C285436422238285026941
:10111C0080F84230816203681AB1DA6842F4807256
:10112C00DA605A69002042F001025A61DA6842F032
:10113C002002DA60704770B490F84260202E06D11D
:10114C0041B13AB10024046370BCFFF7DBBF02204D
:10115C0070BC70470120FBE7FFF7E6F80B480C4921
:10116C000C4A002302E0D458C4500433C4188C42F7
:10117C00F9D3094A094C002301E013600432A2425E
:10118C00FBD300F017F8FEF7DBFF704700000020E0
:10119C000C000020541200080C00002078000020E5
:1011AC00FEE703460244934200D1704703F8011B4B
:1011BC00F9E7000070B500260C4D0D4C641BA41013
:1011CC00A64209D100F01AF800260A4D0A4C641BFD
:1011DC00A410A64205D170BD55F8043B98470136C2
:1011EC00EEE755F8043B98470136F2E74A1200083F
:1011FC004A1200084C12000850120008F8B500BF43
:10120C00F8BC08BC9E467047F8B500BFF8BC08BCDB
:04121C009E46704733
:1012200000000000010203040000000000000000B4
:101230000102030406070809010202030405060768
:0A12400008090A0B0C0D0E0F101028
:04124C003101000864
:041250000D01000884
:0C12540000127A000100000010000000F1
:040000050800116579
:00000001FF
